{"contracts/FundMe.sol":{"FundMe":{"abi":[{"inputs":[{"internalType":"uint256","name":"_lockTime","type":"uint256"},{"internalType":"address","name":"dataFeedAddr","type":"address"}],"stateMutability":"nonpayable","type":"constructor"},{"anonymous":false,"inputs":[{"indexed":false,"internalType":"uint256","name":"","type":"uint256"}],"name":"FundWithdrawnByOwner","type":"event"},{"anonymous":false,"inputs":[{"indexed":false,"internalType":"address","name":"","type":"address"},{"indexed":false,"internalType":"uint256","name":"","type":"uint256"}],"name":"ReFundWithdrawnByOwner","type":"event"},{"inputs":[],"name":"dataFeed","outputs":[{"internalType":"contract AggregatorV3Interface","name":"","type":"address"}],"stateMutability":"view","type":"function"},{"inputs":[],"name":"fund","outputs":[],"stateMutability":"payable","type":"function"},{"inputs":[{"internalType":"address","name":"","type":"address"}],"name":"fundersToAmount","outputs":[{"internalType":"uint256","name":"","type":"uint256"}],"stateMutability":"view","type":"function"},{"inputs":[],"name":"getChainlinkDataFeedLatestAnswer","outputs":[{"internalType":"int256","name":"","type":"int256"}],"stateMutability":"view","type":"function"},{"inputs":[],"name":"getFund","outputs":[],"stateMutability":"payable","type":"function"},{"inputs":[],"name":"getFundSuccess","outputs":[{"internalType":"bool","name":"","type":"bool"}],"stateMutability":"view","type":"function"},{"inputs":[],"name":"owner","outputs":[{"internalType":"address","name":"","type":"address"}],"stateMutability":"view","type":"function"},{"inputs":[],"name":"refund","outputs":[],"stateMutability":"payable","type":"function"},{"inputs":[{"internalType":"address","name":"_erc20Addr","type":"address"}],"name":"setErc20Addr","outputs":[],"stateMutability":"nonpayable","type":"function"},{"inputs":[{"internalType":"address","name":"funder","type":"address"},{"internalType":"uint256","name":"amountToUpdate","type":"uint256"}],"name":"setFunderToAmount","outputs":[],"stateMutability":"nonpayable","type":"function"},{"inputs":[{"internalType":"address","name":"newOwner","type":"address"}],"name":"transferOwnership","outputs":[],"stateMutability":"nonpayable","type":"function"}],"devdoc":{"kind":"dev","methods":{},"version":1},"evm":{"bytecode":{"linkReferences":{},"object":"60806040526000600460146101000a81548160ff02191690831515021790555034801561002b57600080fd5b50604051611f6b380380611f6b833981810160405281019061004d9190610202565b6100676774dc0c85e18becdb60c01b61016660201b60201c565b61008167ddd6799fc2a4684960c01b61016660201b60201c565b80600560006101000a81548173ffffffffffffffffffffffffffffffffffffffff021916908373ffffffffffffffffffffffffffffffffffffffff1602179055506100dc676c5615b72f8eba9760c01b61016660201b60201c565b33600160006101000a81548173ffffffffffffffffffffffffffffffffffffffff021916908373ffffffffffffffffffffffffffffffffffffffff160217905550610137677ad8baed20dacb5560c01b61016660201b60201c565b4260028190555061015867371960203f97552460c01b61016660201b60201c565b816003819055505050610242565b50565b600080fd5b6000819050919050565b6101818161016e565b811461018c57600080fd5b50565b60008151905061019e81610178565b92915050565b600073ffffffffffffffffffffffffffffffffffffffff82169050919050565b60006101cf826101a4565b9050919050565b6101df816101c4565b81146101ea57600080fd5b50565b6000815190506101fc816101d6565b92915050565b6000806040838503121561021957610218610169565b5b60006102278582860161018f565b9250506020610238858286016101ed565b9150509250929050565b611d1a806102516000396000f3fe60806040526004361061009c5760003560e01c80639f883a05116100645780639f883a0514610134578063b60d428814610171578063bea4dfb51461017b578063d39cf006146101a6578063da4658e0146101cf578063f2fde38b146101fa5761009c565b806313ffff01146100a1578063590e1ae3146100ca5780638da5cb5b146100d45780638edd6eb6146100ff5780639e42ff9014610109575b600080fd5b3480156100ad57600080fd5b506100c860048036038101906100c391906114da565b610223565b005b6100d26103bf565b005b3480156100e057600080fd5b506100e961089a565b6040516100f69190611516565b60405180910390f35b6101076108c0565b005b34801561011557600080fd5b5061011e610deb565b60405161012b9190611590565b60405180910390f35b34801561014057600080fd5b5061015b600480360381019061015691906114da565b610e11565b60405161016891906115c4565b60405180910390f35b610179610e29565b005b34801561018757600080fd5b50610190610fdb565b60405161019d91906115f8565b60405180910390f35b3480156101b257600080fd5b506101cd60048036038101906101c8919061163f565b6110e1565b005b3480156101db57600080fd5b506101e4611230565b6040516101f1919061169a565b60405180910390f35b34801561020657600080fd5b50610221600480360381019061021c91906114da565b611243565b005b610237679146a69194fbd27460c01b6113df565b61024b672ad767c8a38d143e60c01b6113df565b61025f67d05c710b3671734860c01b6113df565b610273671c7bf30fbf475bb660c01b6113df565b61028767a56a7ab3dcc3675460c01b6113df565b600160009054906101000a900473ffffffffffffffffffffffffffffffffffffffff1673ffffffffffffffffffffffffffffffffffffffff163373ffffffffffffffffffffffffffffffffffffffff1614610317576040517f08c379a000000000000000000000000000000000000000000000000000000000815260040161030e90611738565b60405180910390fd5b61032b675ef557679e0dfee760c01b6113df565b61033f6752de0caf6a3c7fe360c01b6113df565b610353671ce0597c80a150a560c01b6113df565b6103676733f2d1b3ef61fdb760c01b6113df565b61037b6761ee721b2263562960c01b6113df565b80600460006101000a81548173ffffffffffffffffffffffffffffffffffffffff021916908373ffffffffffffffffffffffffffffffffffffffff16021790555050565b6103d3672badae3474e65ee360c01b6113df565b6103e767de17d2049558bc3760c01b6113df565b6103fb672f016dfa7e6b84f560c01b6113df565b61040f67aea51c685824c45460c01b6113df565b61042367f4257f01fad9006660c01b6113df565b6003546002546104339190611787565b421015610475576040517f08c379a000000000000000000000000000000000000000000000000000000000815260040161046c90611807565b60405180910390fd5b61048967bdc1a949455c474a60c01b6113df565b61049d6785d3dc2d71a4a8c060c01b6113df565b6104b167820c0af966460ed560c01b6113df565b6104c567f9c418ceb22aac3c60c01b6113df565b6104d967666ee8b351dfb20f60c01b6113df565b6104ed6791fbda4b5b86e3c860c01b6113df565b6105006648f4073cb3305e60c01b6113df565b683635c9adc5dea00000610513476113e2565b10610553576040517f08c379a000000000000000000000000000000000000000000000000000000000815260040161054a90611873565b60405180910390fd5b61056767e6395e04affb8b7160c01b6113df565b61057b6748ad80bc705ed3a160c01b6113df565b61058f67b56c1c6dc62659fc60c01b6113df565b6105a367816c7c480a260c8a60c01b6113df565b60008060003373ffffffffffffffffffffffffffffffffffffffff1673ffffffffffffffffffffffffffffffffffffffff1681526020019081526020016000205411610624576040517f08c379a000000000000000000000000000000000000000000000000000000000815260040161061b906118df565b60405180910390fd5b61063867266283b3c7f6200860c01b6113df565b61064c677e93378cf58a89dd60c01b6113df565b6106606766893d0d625d2a4760c01b6113df565b6000610676676e15490d6bf351eb60c01b6113df565b61068a67046b727cd50ccca060c01b6113df565b60008060003373ffffffffffffffffffffffffffffffffffffffff1673ffffffffffffffffffffffffffffffffffffffff1681526020019081526020016000205490506106e16744866191b0f8212660c01b6113df565b3373ffffffffffffffffffffffffffffffffffffffff168160405161070590611930565b60006040518083038185875af1925050503d8060008114610742576040519150601f19603f3d011682016040523d82523d6000602084013e610747565b606091505b505080925050610761672ef11bf444e140f160c01b6113df565b610775678416a25171d39a3160c01b6113df565b61078967a839ec39080394e460c01b6113df565b816107c9576040517f08c379a00000000000000000000000000000000000000000000000000000000081526004016107c090611991565b60405180910390fd5b6107dd67f1011e47450efa3d60c01b6113df565b6107f1675235b0665694798c60c01b6113df565b60008060003373ffffffffffffffffffffffffffffffffffffffff1673ffffffffffffffffffffffffffffffffffffffff16815260200190815260200160002081905550610849674ac846d04b8a5acb60c01b6113df565b61085d672827cc1de83e6c1b60c01b6113df565b7f77c6a2d8d3942a382b334e2c03e61d126d3ca8fe1101b1f3e08d437d2294c75e338260405161088e9291906119b1565b60405180910390a15050565b600160009054906101000a900473ffffffffffffffffffffffffffffffffffffffff1681565b6108d467446c163924647e3660c01b6113df565b6108e867de17d2049558bc3760c01b6113df565b6108fc672f016dfa7e6b84f560c01b6113df565b61091067aea51c685824c45460c01b6113df565b61092467f4257f01fad9006660c01b6113df565b6003546002546109349190611787565b421015610976576040517f08c379a000000000000000000000000000000000000000000000000000000000815260040161096d90611807565b60405180910390fd5b61098a67bdc1a949455c474a60c01b6113df565b61099e6785d3dc2d71a4a8c060c01b6113df565b6109b267670ef7b47a1fb8b760c01b6113df565b6109c667647813953de6ca6360c01b6113df565b6109da672ad767c8a38d143e60c01b6113df565b6109ee67d05c710b3671734860c01b6113df565b610a02671c7bf30fbf475bb660c01b6113df565b610a1667a56a7ab3dcc3675460c01b6113df565b600160009054906101000a900473ffffffffffffffffffffffffffffffffffffffff1673ffffffffffffffffffffffffffffffffffffffff163373ffffffffffffffffffffffffffffffffffffffff1614610aa6576040517f08c379a0000000000000000000000000000000000000000000000000000000008152600401610a9d90611738565b60405180910390fd5b610aba675ef557679e0dfee760c01b6113df565b610ace6752de0caf6a3c7fe360c01b6113df565b610ae267754c69478b046b6960c01b6113df565b610af66772faafa1ce413f2f60c01b6113df565b610b0a677b592157ec1ebe0c60c01b6113df565b610b1e67cd4ba0af324aa06560c01b6113df565b610b326749cf449b52cdbb0860c01b6113df565b683635c9adc5dea00000610b45476113e2565b1015610b86576040517f08c379a0000000000000000000000000000000000000000000000000000000008152600401610b7d90611873565b60405180910390fd5b610b9a677015fff309808c1b60c01b6113df565b610bae67496e235ad586046960c01b6113df565b610bc2677adc94fc1d3b90d060c01b6113df565b6000610bd867da537c49756252fb60c01b6113df565b610bec673e7e72ab0c22a43860c01b6113df565b6000479050610c0567af7b0c3390b1ff1b60c01b6113df565b3373ffffffffffffffffffffffffffffffffffffffff1681604051610c2990611930565b60006040518083038185875af1925050503d8060008114610c66576040519150601f19603f3d011682016040523d82523d6000602084013e610c6b565b606091505b505080925050610c8567f3aa9de1a5fa7d1660c01b6113df565b610c99677cdc0a34c80c231560c01b6113df565b610cad674871e83078c6712160c01b6113df565b81610ced576040517f08c379a0000000000000000000000000000000000000000000000000000000008152600401610ce490611991565b60405180910390fd5b610d0167415fc40deabff6b460c01b6113df565b610d1567d58c2c051222d35e60c01b6113df565b60008060003373ffffffffffffffffffffffffffffffffffffffff1673ffffffffffffffffffffffffffffffffffffffff16815260200190815260200160002081905550610d6d67da9111aabd2d9ad860c01b6113df565b6001600460146101000a81548160ff021916908315150217905550610d9c676cc3a482058fd24260c01b6113df565b610db0676abb0c9b7a31859360c01b6113df565b7f79f21f274bcdba22f4de57856002ef2dcf5eed39503e61aeaf5f593b6ffa79b981604051610ddf91906115c4565b60405180910390a15050565b600560009054906101000a900473ffffffffffffffffffffffffffffffffffffffff1681565b60006020528060005260406000206000915090505481565b610e3d6779fef8e0f8273db360c01b6113df565b610e5167cb458f4c6feb136260c01b6113df565b610e65678c283582bc56ee0560c01b6113df565b610e7967a1a826c7273b0d4660c01b6113df565b68056bc75e2d63100000610e8c346113e2565b1015610ecd576040517f08c379a0000000000000000000000000000000000000000000000000000000008152600401610ec490611a26565b60405180910390fd5b610ee167df948372a1bb198060c01b6113df565b610ef56788ad9e841bd903cd60c01b6113df565b610f096796a4d256cd1c0f0260c01b6113df565b610f1d6708d37c9fdde0585660c01b6113df565b600354600254610f2d9190611787565b4210610f6e576040517f08c379a0000000000000000000000000000000000000000000000000000000008152600401610f6590611a92565b60405180910390fd5b610f826783fc8ffddfc1499c60c01b6113df565b610f9667bf453418eeac600560c01b6113df565b346000803373ffffffffffffffffffffffffffffffffffffffff1673ffffffffffffffffffffffffffffffffffffffff16815260200190815260200160002081905550565b6000610ff1674fee39e6f3e5f16860c01b6113df565b611005675aeea0530c437a1d60c01b6113df565b61101967ba81b9df3bfb723260c01b6113df565b6000600560009054906101000a900473ffffffffffffffffffffffffffffffffffffffff1673ffffffffffffffffffffffffffffffffffffffff1663feaf968c6040518163ffffffff1660e01b815260040160a060405180830381865afa158015611088573d6000803e3d6000fd5b505050506040513d601f19601f820116820180604052508101906110ac9190611b35565b5050509150506110c66791af0665c2b29aba60c01b6113df565b6110da67a65062678dc0e5f760c01b6113df565b8091505090565b6110f5675935161cc3e4e6ad60c01b6113df565b61110967a131a2884563de3860c01b6113df565b61111d6783438d7ca309be3d60c01b6113df565b61113167cb996d25827143b560c01b6113df565b600460009054906101000a900473ffffffffffffffffffffffffffffffffffffffff1673ffffffffffffffffffffffffffffffffffffffff163373ffffffffffffffffffffffffffffffffffffffff16146111c1576040517f08c379a00000000000000000000000000000000000000000000000000000000081526004016111b890611c22565b60405180910390fd5b6111d567aea03acf485a8a4e60c01b6113df565b6111e967a8f94e37f2a46d1060c01b6113df565b806000808473ffffffffffffffffffffffffffffffffffffffff1673ffffffffffffffffffffffffffffffffffffffff168152602001908152602001600020819055505050565b600460149054906101000a900460ff1681565b61125767fd326fa0b8643fcb60c01b6113df565b61126b672ad767c8a38d143e60c01b6113df565b61127f67d05c710b3671734860c01b6113df565b611293671c7bf30fbf475bb660c01b6113df565b6112a767a56a7ab3dcc3675460c01b6113df565b600160009054906101000a900473ffffffffffffffffffffffffffffffffffffffff1673ffffffffffffffffffffffffffffffffffffffff163373ffffffffffffffffffffffffffffffffffffffff1614611337576040517f08c379a000000000000000000000000000000000000000000000000000000000815260040161132e90611738565b60405180910390fd5b61134b675ef557679e0dfee760c01b6113df565b61135f6752de0caf6a3c7fe360c01b6113df565b611373677e094e0b8b0f1a4960c01b6113df565b61138767efa50bbbd9e0cfab60c01b6113df565b61139b674ac3096ab78ff7e760c01b6113df565b80600160006101000a81548173ffffffffffffffffffffffffffffffffffffffff021916908373ffffffffffffffffffffffffffffffffffffffff16021790555050565b50565b60006113f86733c132b2412aaf1e60c01b6113df565b61140c67a5327c35213c919860c01b6113df565b611420672608c5c54368e5c260c01b6113df565b600061142a610fdb565b905061144067e40c7beafa4d2a6f60c01b6113df565b61145467785be5bfb1aa306060c01b6113df565b6305f5e10081846114659190611c42565b61146f9190611cb3565b915050919050565b600080fd5b600073ffffffffffffffffffffffffffffffffffffffff82169050919050565b60006114a78261147c565b9050919050565b6114b78161149c565b81146114c257600080fd5b50565b6000813590506114d4816114ae565b92915050565b6000602082840312156114f0576114ef611477565b5b60006114fe848285016114c5565b91505092915050565b6115108161149c565b82525050565b600060208201905061152b6000830184611507565b92915050565b6000819050919050565b600061155661155161154c8461147c565b611531565b61147c565b9050919050565b60006115688261153b565b9050919050565b600061157a8261155d565b9050919050565b61158a8161156f565b82525050565b60006020820190506115a56000830184611581565b92915050565b6000819050919050565b6115be816115ab565b82525050565b60006020820190506115d960008301846115b5565b92915050565b6000819050919050565b6115f2816115df565b82525050565b600060208201905061160d60008301846115e9565b92915050565b61161c816115ab565b811461162757600080fd5b50565b60008135905061163981611613565b92915050565b6000806040838503121561165657611655611477565b5b6000611664858286016114c5565b92505060206116758582860161162a565b9150509250929050565b60008115159050919050565b6116948161167f565b82525050565b60006020820190506116af600083018461168b565b92915050565b600082825260208201905092915050565b7f746869732066756e6374696f6e2063616e206f6e6c792062652063616c6c656460008201527f206279206f776e65720000000000000000000000000000000000000000000000602082015250565b60006117226029836116b5565b915061172d826116c6565b604082019050919050565b6000602082019050818103600083015261175181611715565b9050919050565b7f4e487b7100000000000000000000000000000000000000000000000000000000600052601160045260246000fd5b6000611792826115ab565b915061179d836115ab565b92508282019050808211156117b5576117b4611758565b5b92915050565b7f77696e646f77206973206e6f7420636c6f736564000000000000000000000000600082015250565b60006117f16014836116b5565b91506117fc826117bb565b602082019050919050565b60006020820190508181036000830152611820816117e4565b9050919050565b7f546172676572206973206e6f7420726561636865640000000000000000000000600082015250565b600061185d6015836116b5565b915061186882611827565b602082019050919050565b6000602082019050818103600083015261188c81611850565b9050919050565b7f7468657265206973206e6f2066756e6420666f7220796f750000000000000000600082015250565b60006118c96018836116b5565b91506118d482611893565b602082019050919050565b600060208201905081810360008301526118f8816118bc565b9050919050565b600081905092915050565b50565b600061191a6000836118ff565b91506119258261190a565b600082019050919050565b600061193b8261190d565b9150819050919050565b7f7472616e73666572207478206661696c65640000000000000000000000000000600082015250565b600061197b6012836116b5565b915061198682611945565b602082019050919050565b600060208201905081810360008301526119aa8161196e565b9050919050565b60006040820190506119c66000830185611507565b6119d360208301846115b5565b9392505050565b7f73656e64206d6f72652065746800000000000000000000000000000000000000600082015250565b6000611a10600d836116b5565b9150611a1b826119da565b602082019050919050565b60006020820190508181036000830152611a3f81611a03565b9050919050565b7f77696e646f7720697320636c6f73656400000000000000000000000000000000600082015250565b6000611a7c6010836116b5565b9150611a8782611a46565b602082019050919050565b60006020820190508181036000830152611aab81611a6f565b9050919050565b600069ffffffffffffffffffff82169050919050565b611ad181611ab2565b8114611adc57600080fd5b50565b600081519050611aee81611ac8565b92915050565b611afd816115df565b8114611b0857600080fd5b50565b600081519050611b1a81611af4565b92915050565b600081519050611b2f81611613565b92915050565b600080600080600060a08688031215611b5157611b50611477565b5b6000611b5f88828901611adf565b9550506020611b7088828901611b0b565b9450506040611b8188828901611b20565b9350506060611b9288828901611b20565b9250506080611ba388828901611adf565b9150509295509295909350565b7f6f6e6c7920657263323020636f6e74726163742063616e2063616c6c2074686960008201527f732066756e6374696f6e00000000000000000000000000000000000000000000602082015250565b6000611c0c602a836116b5565b9150611c1782611bb0565b604082019050919050565b60006020820190508181036000830152611c3b81611bff565b9050919050565b6000611c4d826115ab565b9150611c58836115ab565b9250828202611c66816115ab565b91508282048414831517611c7d57611c7c611758565b5b5092915050565b7f4e487b7100000000000000000000000000000000000000000000000000000000600052601260045260246000fd5b6000611cbe826115ab565b9150611cc9836115ab565b925082611cd957611cd8611c84565b5b82820490509291505056fea264697066735822122095284394cc356a81c35655a265b1b16160765e5290e296ccfa90e425040d207864736f6c634300081c0033","opcodes":"PUSH1 0x80 PUSH1 0x40 MSTORE PUSH1 0x0 PUSH1 0x4 PUSH1 0x14 PUSH2 0x100 EXP DUP2 SLOAD DUP2 PUSH1 0xFF MUL NOT AND SWAP1 DUP4 ISZERO ISZERO MUL OR SWAP1 SSTORE POP CALLVALUE DUP1 ISZERO PUSH2 0x2B JUMPI PUSH1 0x0 DUP1 REVERT JUMPDEST POP PUSH1 0x40 MLOAD PUSH2 0x1F6B CODESIZE SUB DUP1 PUSH2 0x1F6B DUP4 CODECOPY DUP2 DUP2 ADD PUSH1 0x40 MSTORE DUP2 ADD SWAP1 PUSH2 0x4D SWAP2 SWAP1 PUSH2 0x202 JUMP JUMPDEST PUSH2 0x67 PUSH8 0x74DC0C85E18BECDB PUSH1 0xC0 SHL PUSH2 0x166 PUSH1 0x20 SHL PUSH1 0x20 SHR JUMP JUMPDEST PUSH2 0x81 PUSH8 0xDDD6799FC2A46849 PUSH1 0xC0 SHL PUSH2 0x166 PUSH1 0x20 SHL PUSH1 0x20 SHR JUMP JUMPDEST DUP1 PUSH1 0x5 PUSH1 0x0 PUSH2 0x100 EXP DUP2 SLOAD DUP2 PUSH20 0xFFFFFFFFFFFFFFFFFFFFFFFFFFFFFFFFFFFFFFFF MUL NOT AND SWAP1 DUP4 PUSH20 0xFFFFFFFFFFFFFFFFFFFFFFFFFFFFFFFFFFFFFFFF AND MUL OR SWAP1 SSTORE POP PUSH2 0xDC PUSH8 0x6C5615B72F8EBA97 PUSH1 0xC0 SHL PUSH2 0x166 PUSH1 0x20 SHL PUSH1 0x20 SHR JUMP JUMPDEST CALLER PUSH1 0x1 PUSH1 0x0 PUSH2 0x100 EXP DUP2 SLOAD DUP2 PUSH20 0xFFFFFFFFFFFFFFFFFFFFFFFFFFFFFFFFFFFFFFFF MUL NOT AND SWAP1 DUP4 PUSH20 0xFFFFFFFFFFFFFFFFFFFFFFFFFFFFFFFFFFFFFFFF AND MUL OR SWAP1 SSTORE POP PUSH2 0x137 PUSH8 0x7AD8BAED20DACB55 PUSH1 0xC0 SHL PUSH2 0x166 PUSH1 0x20 SHL PUSH1 0x20 SHR JUMP JUMPDEST TIMESTAMP PUSH1 0x2 DUP2 SWAP1 SSTORE POP PUSH2 0x158 PUSH8 0x371960203F975524 PUSH1 0xC0 SHL PUSH2 0x166 PUSH1 0x20 SHL PUSH1 0x20 SHR JUMP JUMPDEST DUP2 PUSH1 0x3 DUP2 SWAP1 SSTORE POP POP POP PUSH2 0x242 JUMP JUMPDEST POP JUMP JUMPDEST PUSH1 0x0 DUP1 REVERT JUMPDEST PUSH1 0x0 DUP2 SWAP1 POP SWAP2 SWAP1 POP JUMP JUMPDEST PUSH2 0x181 DUP2 PUSH2 0x16E JUMP JUMPDEST DUP2 EQ PUSH2 0x18C JUMPI PUSH1 0x0 DUP1 REVERT JUMPDEST POP JUMP JUMPDEST PUSH1 0x0 DUP2 MLOAD SWAP1 POP PUSH2 0x19E DUP2 PUSH2 0x178 JUMP JUMPDEST SWAP3 SWAP2 POP POP JUMP JUMPDEST PUSH1 0x0 PUSH20 0xFFFFFFFFFFFFFFFFFFFFFFFFFFFFFFFFFFFFFFFF DUP3 AND SWAP1 POP SWAP2 SWAP1 POP JUMP JUMPDEST PUSH1 0x0 PUSH2 0x1CF DUP3 PUSH2 0x1A4 JUMP JUMPDEST SWAP1 POP SWAP2 SWAP1 POP JUMP JUMPDEST PUSH2 0x1DF DUP2 PUSH2 0x1C4 JUMP JUMPDEST DUP2 EQ PUSH2 0x1EA JUMPI PUSH1 0x0 DUP1 REVERT JUMPDEST POP JUMP JUMPDEST PUSH1 0x0 DUP2 MLOAD SWAP1 POP PUSH2 0x1FC DUP2 PUSH2 0x1D6 JUMP JUMPDEST SWAP3 SWAP2 POP POP JUMP JUMPDEST PUSH1 0x0 DUP1 PUSH1 0x40 DUP4 DUP6 SUB SLT ISZERO PUSH2 0x219 JUMPI PUSH2 0x218 PUSH2 0x169 JUMP JUMPDEST JUMPDEST PUSH1 0x0 PUSH2 0x227 DUP6 DUP3 DUP7 ADD PUSH2 0x18F JUMP JUMPDEST SWAP3 POP POP PUSH1 0x20 PUSH2 0x238 DUP6 DUP3 DUP7 ADD PUSH2 0x1ED JUMP JUMPDEST SWAP2 POP POP SWAP3 POP SWAP3 SWAP1 POP JUMP JUMPDEST PUSH2 0x1D1A DUP1 PUSH2 0x251 PUSH1 0x0 CODECOPY PUSH1 0x0 RETURN INVALID PUSH1 0x80 PUSH1 0x40 MSTORE PUSH1 0x4 CALLDATASIZE LT PUSH2 0x9C JUMPI PUSH1 0x0 CALLDATALOAD PUSH1 0xE0 SHR DUP1 PUSH4 0x9F883A05 GT PUSH2 0x64 JUMPI DUP1 PUSH4 0x9F883A05 EQ PUSH2 0x134 JUMPI DUP1 PUSH4 0xB60D4288 EQ PUSH2 0x171 JUMPI DUP1 PUSH4 0xBEA4DFB5 EQ PUSH2 0x17B JUMPI DUP1 PUSH4 0xD39CF006 EQ PUSH2 0x1A6 JUMPI DUP1 PUSH4 0xDA4658E0 EQ PUSH2 0x1CF JUMPI DUP1 PUSH4 0xF2FDE38B EQ PUSH2 0x1FA JUMPI PUSH2 0x9C JUMP JUMPDEST DUP1 PUSH4 0x13FFFF01 EQ PUSH2 0xA1 JUMPI DUP1 PUSH4 0x590E1AE3 EQ PUSH2 0xCA JUMPI DUP1 PUSH4 0x8DA5CB5B EQ PUSH2 0xD4 JUMPI DUP1 PUSH4 0x8EDD6EB6 EQ PUSH2 0xFF JUMPI DUP1 PUSH4 0x9E42FF90 EQ PUSH2 0x109 JUMPI JUMPDEST PUSH1 0x0 DUP1 REVERT JUMPDEST CALLVALUE DUP1 ISZERO PUSH2 0xAD JUMPI PUSH1 0x0 DUP1 REVERT JUMPDEST POP PUSH2 0xC8 PUSH1 0x4 DUP1 CALLDATASIZE SUB DUP2 ADD SWAP1 PUSH2 0xC3 SWAP2 SWAP1 PUSH2 0x14DA JUMP JUMPDEST PUSH2 0x223 JUMP JUMPDEST STOP JUMPDEST PUSH2 0xD2 PUSH2 0x3BF JUMP JUMPDEST STOP JUMPDEST CALLVALUE DUP1 ISZERO PUSH2 0xE0 JUMPI PUSH1 0x0 DUP1 REVERT JUMPDEST POP PUSH2 0xE9 PUSH2 0x89A JUMP JUMPDEST PUSH1 0x40 MLOAD PUSH2 0xF6 SWAP2 SWAP1 PUSH2 0x1516 JUMP JUMPDEST PUSH1 0x40 MLOAD DUP1 SWAP2 SUB SWAP1 RETURN JUMPDEST PUSH2 0x107 PUSH2 0x8C0 JUMP JUMPDEST STOP JUMPDEST CALLVALUE DUP1 ISZERO PUSH2 0x115 JUMPI PUSH1 0x0 DUP1 REVERT JUMPDEST POP PUSH2 0x11E PUSH2 0xDEB JUMP JUMPDEST PUSH1 0x40 MLOAD PUSH2 0x12B SWAP2 SWAP1 PUSH2 0x1590 JUMP JUMPDEST PUSH1 0x40 MLOAD DUP1 SWAP2 SUB SWAP1 RETURN JUMPDEST CALLVALUE DUP1 ISZERO PUSH2 0x140 JUMPI PUSH1 0x0 DUP1 REVERT JUMPDEST POP PUSH2 0x15B PUSH1 0x4 DUP1 CALLDATASIZE SUB DUP2 ADD SWAP1 PUSH2 0x156 SWAP2 SWAP1 PUSH2 0x14DA JUMP JUMPDEST PUSH2 0xE11 JUMP JUMPDEST PUSH1 0x40 MLOAD PUSH2 0x168 SWAP2 SWAP1 PUSH2 0x15C4 JUMP JUMPDEST PUSH1 0x40 MLOAD DUP1 SWAP2 SUB SWAP1 RETURN JUMPDEST PUSH2 0x179 PUSH2 0xE29 JUMP JUMPDEST STOP JUMPDEST CALLVALUE DUP1 ISZERO PUSH2 0x187 JUMPI PUSH1 0x0 DUP1 REVERT JUMPDEST POP PUSH2 0x190 PUSH2 0xFDB JUMP JUMPDEST PUSH1 0x40 MLOAD PUSH2 0x19D SWAP2 SWAP1 PUSH2 0x15F8 JUMP JUMPDEST PUSH1 0x40 MLOAD DUP1 SWAP2 SUB SWAP1 RETURN JUMPDEST CALLVALUE DUP1 ISZERO PUSH2 0x1B2 JUMPI PUSH1 0x0 DUP1 REVERT JUMPDEST POP PUSH2 0x1CD PUSH1 0x4 DUP1 CALLDATASIZE SUB DUP2 ADD SWAP1 PUSH2 0x1C8 SWAP2 SWAP1 PUSH2 0x163F JUMP JUMPDEST PUSH2 0x10E1 JUMP JUMPDEST STOP JUMPDEST CALLVALUE DUP1 ISZERO PUSH2 0x1DB JUMPI PUSH1 0x0 DUP1 REVERT JUMPDEST POP PUSH2 0x1E4 PUSH2 0x1230 JUMP JUMPDEST PUSH1 0x40 MLOAD PUSH2 0x1F1 SWAP2 SWAP1 PUSH2 0x169A JUMP JUMPDEST PUSH1 0x40 MLOAD DUP1 SWAP2 SUB SWAP1 RETURN JUMPDEST CALLVALUE DUP1 ISZERO PUSH2 0x206 JUMPI PUSH1 0x0 DUP1 REVERT JUMPDEST POP PUSH2 0x221 PUSH1 0x4 DUP1 CALLDATASIZE SUB DUP2 ADD SWAP1 PUSH2 0x21C SWAP2 SWAP1 PUSH2 0x14DA JUMP JUMPDEST PUSH2 0x1243 JUMP JUMPDEST STOP JUMPDEST PUSH2 0x237 PUSH8 0x9146A69194FBD274 PUSH1 0xC0 SHL PUSH2 0x13DF JUMP JUMPDEST PUSH2 0x24B PUSH8 0x2AD767C8A38D143E PUSH1 0xC0 SHL PUSH2 0x13DF JUMP JUMPDEST PUSH2 0x25F PUSH8 0xD05C710B36717348 PUSH1 0xC0 SHL PUSH2 0x13DF JUMP JUMPDEST PUSH2 0x273 PUSH8 0x1C7BF30FBF475BB6 PUSH1 0xC0 SHL PUSH2 0x13DF JUMP JUMPDEST PUSH2 0x287 PUSH8 0xA56A7AB3DCC36754 PUSH1 0xC0 SHL PUSH2 0x13DF JUMP JUMPDEST PUSH1 0x1 PUSH1 0x0 SWAP1 SLOAD SWAP1 PUSH2 0x100 EXP SWAP1 DIV PUSH20 0xFFFFFFFFFFFFFFFFFFFFFFFFFFFFFFFFFFFFFFFF AND PUSH20 0xFFFFFFFFFFFFFFFFFFFFFFFFFFFFFFFFFFFFFFFF AND CALLER PUSH20 0xFFFFFFFFFFFFFFFFFFFFFFFFFFFFFFFFFFFFFFFF AND EQ PUSH2 0x317 JUMPI PUSH1 0x40 MLOAD PUSH32 0x8C379A000000000000000000000000000000000000000000000000000000000 DUP2 MSTORE PUSH1 0x4 ADD PUSH2 0x30E SWAP1 PUSH2 0x1738 JUMP JUMPDEST PUSH1 0x40 MLOAD DUP1 SWAP2 SUB SWAP1 REVERT JUMPDEST PUSH2 0x32B PUSH8 0x5EF557679E0DFEE7 PUSH1 0xC0 SHL PUSH2 0x13DF JUMP JUMPDEST PUSH2 0x33F PUSH8 0x52DE0CAF6A3C7FE3 PUSH1 0xC0 SHL PUSH2 0x13DF JUMP JUMPDEST PUSH2 0x353 PUSH8 0x1CE0597C80A150A5 PUSH1 0xC0 SHL PUSH2 0x13DF JUMP JUMPDEST PUSH2 0x367 PUSH8 0x33F2D1B3EF61FDB7 PUSH1 0xC0 SHL PUSH2 0x13DF JUMP JUMPDEST PUSH2 0x37B PUSH8 0x61EE721B22635629 PUSH1 0xC0 SHL PUSH2 0x13DF JUMP JUMPDEST DUP1 PUSH1 0x4 PUSH1 0x0 PUSH2 0x100 EXP DUP2 SLOAD DUP2 PUSH20 0xFFFFFFFFFFFFFFFFFFFFFFFFFFFFFFFFFFFFFFFF MUL NOT AND SWAP1 DUP4 PUSH20 0xFFFFFFFFFFFFFFFFFFFFFFFFFFFFFFFFFFFFFFFF AND MUL OR SWAP1 SSTORE POP POP JUMP JUMPDEST PUSH2 0x3D3 PUSH8 0x2BADAE3474E65EE3 PUSH1 0xC0 SHL PUSH2 0x13DF JUMP JUMPDEST PUSH2 0x3E7 PUSH8 0xDE17D2049558BC37 PUSH1 0xC0 SHL PUSH2 0x13DF JUMP JUMPDEST PUSH2 0x3FB PUSH8 0x2F016DFA7E6B84F5 PUSH1 0xC0 SHL PUSH2 0x13DF JUMP JUMPDEST PUSH2 0x40F PUSH8 0xAEA51C685824C454 PUSH1 0xC0 SHL PUSH2 0x13DF JUMP JUMPDEST PUSH2 0x423 PUSH8 0xF4257F01FAD90066 PUSH1 0xC0 SHL PUSH2 0x13DF JUMP JUMPDEST PUSH1 0x3 SLOAD PUSH1 0x2 SLOAD PUSH2 0x433 SWAP2 SWAP1 PUSH2 0x1787 JUMP JUMPDEST TIMESTAMP LT ISZERO PUSH2 0x475 JUMPI PUSH1 0x40 MLOAD PUSH32 0x8C379A000000000000000000000000000000000000000000000000000000000 DUP2 MSTORE PUSH1 0x4 ADD PUSH2 0x46C SWAP1 PUSH2 0x1807 JUMP JUMPDEST PUSH1 0x40 MLOAD DUP1 SWAP2 SUB SWAP1 REVERT JUMPDEST PUSH2 0x489 PUSH8 0xBDC1A949455C474A PUSH1 0xC0 SHL PUSH2 0x13DF JUMP JUMPDEST PUSH2 0x49D PUSH8 0x85D3DC2D71A4A8C0 PUSH1 0xC0 SHL PUSH2 0x13DF JUMP JUMPDEST PUSH2 0x4B1 PUSH8 0x820C0AF966460ED5 PUSH1 0xC0 SHL PUSH2 0x13DF JUMP JUMPDEST PUSH2 0x4C5 PUSH8 0xF9C418CEB22AAC3C PUSH1 0xC0 SHL PUSH2 0x13DF JUMP JUMPDEST PUSH2 0x4D9 PUSH8 0x666EE8B351DFB20F PUSH1 0xC0 SHL PUSH2 0x13DF JUMP JUMPDEST PUSH2 0x4ED PUSH8 0x91FBDA4B5B86E3C8 PUSH1 0xC0 SHL PUSH2 0x13DF JUMP JUMPDEST PUSH2 0x500 PUSH7 0x48F4073CB3305E PUSH1 0xC0 SHL PUSH2 0x13DF JUMP JUMPDEST PUSH9 0x3635C9ADC5DEA00000 PUSH2 0x513 SELFBALANCE PUSH2 0x13E2 JUMP JUMPDEST LT PUSH2 0x553 JUMPI PUSH1 0x40 MLOAD PUSH32 0x8C379A000000000000000000000000000000000000000000000000000000000 DUP2 MSTORE PUSH1 0x4 ADD PUSH2 0x54A SWAP1 PUSH2 0x1873 JUMP JUMPDEST PUSH1 0x40 MLOAD DUP1 SWAP2 SUB SWAP1 REVERT JUMPDEST PUSH2 0x567 PUSH8 0xE6395E04AFFB8B71 PUSH1 0xC0 SHL PUSH2 0x13DF JUMP JUMPDEST PUSH2 0x57B PUSH8 0x48AD80BC705ED3A1 PUSH1 0xC0 SHL PUSH2 0x13DF JUMP JUMPDEST PUSH2 0x58F PUSH8 0xB56C1C6DC62659FC PUSH1 0xC0 SHL PUSH2 0x13DF JUMP JUMPDEST PUSH2 0x5A3 PUSH8 0x816C7C480A260C8A PUSH1 0xC0 SHL PUSH2 0x13DF JUMP JUMPDEST PUSH1 0x0 DUP1 PUSH1 0x0 CALLER PUSH20 0xFFFFFFFFFFFFFFFFFFFFFFFFFFFFFFFFFFFFFFFF AND PUSH20 0xFFFFFFFFFFFFFFFFFFFFFFFFFFFFFFFFFFFFFFFF AND DUP2 MSTORE PUSH1 0x20 ADD SWAP1 DUP2 MSTORE PUSH1 0x20 ADD PUSH1 0x0 KECCAK256 SLOAD GT PUSH2 0x624 JUMPI PUSH1 0x40 MLOAD PUSH32 0x8C379A000000000000000000000000000000000000000000000000000000000 DUP2 MSTORE PUSH1 0x4 ADD PUSH2 0x61B SWAP1 PUSH2 0x18DF JUMP JUMPDEST PUSH1 0x40 MLOAD DUP1 SWAP2 SUB SWAP1 REVERT JUMPDEST PUSH2 0x638 PUSH8 0x266283B3C7F62008 PUSH1 0xC0 SHL PUSH2 0x13DF JUMP JUMPDEST PUSH2 0x64C PUSH8 0x7E93378CF58A89DD PUSH1 0xC0 SHL PUSH2 0x13DF JUMP JUMPDEST PUSH2 0x660 PUSH8 0x66893D0D625D2A47 PUSH1 0xC0 SHL PUSH2 0x13DF JUMP JUMPDEST PUSH1 0x0 PUSH2 0x676 PUSH8 0x6E15490D6BF351EB PUSH1 0xC0 SHL PUSH2 0x13DF JUMP JUMPDEST PUSH2 0x68A PUSH8 0x46B727CD50CCCA0 PUSH1 0xC0 SHL PUSH2 0x13DF JUMP JUMPDEST PUSH1 0x0 DUP1 PUSH1 0x0 CALLER PUSH20 0xFFFFFFFFFFFFFFFFFFFFFFFFFFFFFFFFFFFFFFFF AND PUSH20 0xFFFFFFFFFFFFFFFFFFFFFFFFFFFFFFFFFFFFFFFF AND DUP2 MSTORE PUSH1 0x20 ADD SWAP1 DUP2 MSTORE PUSH1 0x20 ADD PUSH1 0x0 KECCAK256 SLOAD SWAP1 POP PUSH2 0x6E1 PUSH8 0x44866191B0F82126 PUSH1 0xC0 SHL PUSH2 0x13DF JUMP JUMPDEST CALLER PUSH20 0xFFFFFFFFFFFFFFFFFFFFFFFFFFFFFFFFFFFFFFFF AND DUP2 PUSH1 0x40 MLOAD PUSH2 0x705 SWAP1 PUSH2 0x1930 JUMP JUMPDEST PUSH1 0x0 PUSH1 0x40 MLOAD DUP1 DUP4 SUB DUP2 DUP6 DUP8 GAS CALL SWAP3 POP POP POP RETURNDATASIZE DUP1 PUSH1 0x0 DUP2 EQ PUSH2 0x742 JUMPI PUSH1 0x40 MLOAD SWAP2 POP PUSH1 0x1F NOT PUSH1 0x3F RETURNDATASIZE ADD AND DUP3 ADD PUSH1 0x40 MSTORE RETURNDATASIZE DUP3 MSTORE RETURNDATASIZE PUSH1 0x0 PUSH1 0x20 DUP5 ADD RETURNDATACOPY PUSH2 0x747 JUMP JUMPDEST PUSH1 0x60 SWAP2 POP JUMPDEST POP POP DUP1 SWAP3 POP POP PUSH2 0x761 PUSH8 0x2EF11BF444E140F1 PUSH1 0xC0 SHL PUSH2 0x13DF JUMP JUMPDEST PUSH2 0x775 PUSH8 0x8416A25171D39A31 PUSH1 0xC0 SHL PUSH2 0x13DF JUMP JUMPDEST PUSH2 0x789 PUSH8 0xA839EC39080394E4 PUSH1 0xC0 SHL PUSH2 0x13DF JUMP JUMPDEST DUP2 PUSH2 0x7C9 JUMPI PUSH1 0x40 MLOAD PUSH32 0x8C379A000000000000000000000000000000000000000000000000000000000 DUP2 MSTORE PUSH1 0x4 ADD PUSH2 0x7C0 SWAP1 PUSH2 0x1991 JUMP JUMPDEST PUSH1 0x40 MLOAD DUP1 SWAP2 SUB SWAP1 REVERT JUMPDEST PUSH2 0x7DD PUSH8 0xF1011E47450EFA3D PUSH1 0xC0 SHL PUSH2 0x13DF JUMP JUMPDEST PUSH2 0x7F1 PUSH8 0x5235B0665694798C PUSH1 0xC0 SHL PUSH2 0x13DF JUMP JUMPDEST PUSH1 0x0 DUP1 PUSH1 0x0 CALLER PUSH20 0xFFFFFFFFFFFFFFFFFFFFFFFFFFFFFFFFFFFFFFFF AND PUSH20 0xFFFFFFFFFFFFFFFFFFFFFFFFFFFFFFFFFFFFFFFF AND DUP2 MSTORE PUSH1 0x20 ADD SWAP1 DUP2 MSTORE PUSH1 0x20 ADD PUSH1 0x0 KECCAK256 DUP2 SWAP1 SSTORE POP PUSH2 0x849 PUSH8 0x4AC846D04B8A5ACB PUSH1 0xC0 SHL PUSH2 0x13DF JUMP JUMPDEST PUSH2 0x85D PUSH8 0x2827CC1DE83E6C1B PUSH1 0xC0 SHL PUSH2 0x13DF JUMP JUMPDEST PUSH32 0x77C6A2D8D3942A382B334E2C03E61D126D3CA8FE1101B1F3E08D437D2294C75E CALLER DUP3 PUSH1 0x40 MLOAD PUSH2 0x88E SWAP3 SWAP2 SWAP1 PUSH2 0x19B1 JUMP JUMPDEST PUSH1 0x40 MLOAD DUP1 SWAP2 SUB SWAP1 LOG1 POP POP JUMP JUMPDEST PUSH1 0x1 PUSH1 0x0 SWAP1 SLOAD SWAP1 PUSH2 0x100 EXP SWAP1 DIV PUSH20 0xFFFFFFFFFFFFFFFFFFFFFFFFFFFFFFFFFFFFFFFF AND DUP2 JUMP JUMPDEST PUSH2 0x8D4 PUSH8 0x446C163924647E36 PUSH1 0xC0 SHL PUSH2 0x13DF JUMP JUMPDEST PUSH2 0x8E8 PUSH8 0xDE17D2049558BC37 PUSH1 0xC0 SHL PUSH2 0x13DF JUMP JUMPDEST PUSH2 0x8FC PUSH8 0x2F016DFA7E6B84F5 PUSH1 0xC0 SHL PUSH2 0x13DF JUMP JUMPDEST PUSH2 0x910 PUSH8 0xAEA51C685824C454 PUSH1 0xC0 SHL PUSH2 0x13DF JUMP JUMPDEST PUSH2 0x924 PUSH8 0xF4257F01FAD90066 PUSH1 0xC0 SHL PUSH2 0x13DF JUMP JUMPDEST PUSH1 0x3 SLOAD PUSH1 0x2 SLOAD PUSH2 0x934 SWAP2 SWAP1 PUSH2 0x1787 JUMP JUMPDEST TIMESTAMP LT ISZERO PUSH2 0x976 JUMPI PUSH1 0x40 MLOAD PUSH32 0x8C379A000000000000000000000000000000000000000000000000000000000 DUP2 MSTORE PUSH1 0x4 ADD PUSH2 0x96D SWAP1 PUSH2 0x1807 JUMP JUMPDEST PUSH1 0x40 MLOAD DUP1 SWAP2 SUB SWAP1 REVERT JUMPDEST PUSH2 0x98A PUSH8 0xBDC1A949455C474A PUSH1 0xC0 SHL PUSH2 0x13DF JUMP JUMPDEST PUSH2 0x99E PUSH8 0x85D3DC2D71A4A8C0 PUSH1 0xC0 SHL PUSH2 0x13DF JUMP JUMPDEST PUSH2 0x9B2 PUSH8 0x670EF7B47A1FB8B7 PUSH1 0xC0 SHL PUSH2 0x13DF JUMP JUMPDEST PUSH2 0x9C6 PUSH8 0x647813953DE6CA63 PUSH1 0xC0 SHL PUSH2 0x13DF JUMP JUMPDEST PUSH2 0x9DA PUSH8 0x2AD767C8A38D143E PUSH1 0xC0 SHL PUSH2 0x13DF JUMP JUMPDEST PUSH2 0x9EE PUSH8 0xD05C710B36717348 PUSH1 0xC0 SHL PUSH2 0x13DF JUMP JUMPDEST PUSH2 0xA02 PUSH8 0x1C7BF30FBF475BB6 PUSH1 0xC0 SHL PUSH2 0x13DF JUMP JUMPDEST PUSH2 0xA16 PUSH8 0xA56A7AB3DCC36754 PUSH1 0xC0 SHL PUSH2 0x13DF JUMP JUMPDEST PUSH1 0x1 PUSH1 0x0 SWAP1 SLOAD SWAP1 PUSH2 0x100 EXP SWAP1 DIV PUSH20 0xFFFFFFFFFFFFFFFFFFFFFFFFFFFFFFFFFFFFFFFF AND PUSH20 0xFFFFFFFFFFFFFFFFFFFFFFFFFFFFFFFFFFFFFFFF AND CALLER PUSH20 0xFFFFFFFFFFFFFFFFFFFFFFFFFFFFFFFFFFFFFFFF AND EQ PUSH2 0xAA6 JUMPI PUSH1 0x40 MLOAD PUSH32 0x8C379A000000000000000000000000000000000000000000000000000000000 DUP2 MSTORE PUSH1 0x4 ADD PUSH2 0xA9D SWAP1 PUSH2 0x1738 JUMP JUMPDEST PUSH1 0x40 MLOAD DUP1 SWAP2 SUB SWAP1 REVERT JUMPDEST PUSH2 0xABA PUSH8 0x5EF557679E0DFEE7 PUSH1 0xC0 SHL PUSH2 0x13DF JUMP JUMPDEST PUSH2 0xACE PUSH8 0x52DE0CAF6A3C7FE3 PUSH1 0xC0 SHL PUSH2 0x13DF JUMP JUMPDEST PUSH2 0xAE2 PUSH8 0x754C69478B046B69 PUSH1 0xC0 SHL PUSH2 0x13DF JUMP JUMPDEST PUSH2 0xAF6 PUSH8 0x72FAAFA1CE413F2F PUSH1 0xC0 SHL PUSH2 0x13DF JUMP JUMPDEST PUSH2 0xB0A PUSH8 0x7B592157EC1EBE0C PUSH1 0xC0 SHL PUSH2 0x13DF JUMP JUMPDEST PUSH2 0xB1E PUSH8 0xCD4BA0AF324AA065 PUSH1 0xC0 SHL PUSH2 0x13DF JUMP JUMPDEST PUSH2 0xB32 PUSH8 0x49CF449B52CDBB08 PUSH1 0xC0 SHL PUSH2 0x13DF JUMP JUMPDEST PUSH9 0x3635C9ADC5DEA00000 PUSH2 0xB45 SELFBALANCE PUSH2 0x13E2 JUMP JUMPDEST LT ISZERO PUSH2 0xB86 JUMPI PUSH1 0x40 MLOAD PUSH32 0x8C379A000000000000000000000000000000000000000000000000000000000 DUP2 MSTORE PUSH1 0x4 ADD PUSH2 0xB7D SWAP1 PUSH2 0x1873 JUMP JUMPDEST PUSH1 0x40 MLOAD DUP1 SWAP2 SUB SWAP1 REVERT JUMPDEST PUSH2 0xB9A PUSH8 0x7015FFF309808C1B PUSH1 0xC0 SHL PUSH2 0x13DF JUMP JUMPDEST PUSH2 0xBAE PUSH8 0x496E235AD5860469 PUSH1 0xC0 SHL PUSH2 0x13DF JUMP JUMPDEST PUSH2 0xBC2 PUSH8 0x7ADC94FC1D3B90D0 PUSH1 0xC0 SHL PUSH2 0x13DF JUMP JUMPDEST PUSH1 0x0 PUSH2 0xBD8 PUSH8 0xDA537C49756252FB PUSH1 0xC0 SHL PUSH2 0x13DF JUMP JUMPDEST PUSH2 0xBEC PUSH8 0x3E7E72AB0C22A438 PUSH1 0xC0 SHL PUSH2 0x13DF JUMP JUMPDEST PUSH1 0x0 SELFBALANCE SWAP1 POP PUSH2 0xC05 PUSH8 0xAF7B0C3390B1FF1B PUSH1 0xC0 SHL PUSH2 0x13DF JUMP JUMPDEST CALLER PUSH20 0xFFFFFFFFFFFFFFFFFFFFFFFFFFFFFFFFFFFFFFFF AND DUP2 PUSH1 0x40 MLOAD PUSH2 0xC29 SWAP1 PUSH2 0x1930 JUMP JUMPDEST PUSH1 0x0 PUSH1 0x40 MLOAD DUP1 DUP4 SUB DUP2 DUP6 DUP8 GAS CALL SWAP3 POP POP POP RETURNDATASIZE DUP1 PUSH1 0x0 DUP2 EQ PUSH2 0xC66 JUMPI PUSH1 0x40 MLOAD SWAP2 POP PUSH1 0x1F NOT PUSH1 0x3F RETURNDATASIZE ADD AND DUP3 ADD PUSH1 0x40 MSTORE RETURNDATASIZE DUP3 MSTORE RETURNDATASIZE PUSH1 0x0 PUSH1 0x20 DUP5 ADD RETURNDATACOPY PUSH2 0xC6B JUMP JUMPDEST PUSH1 0x60 SWAP2 POP JUMPDEST POP POP DUP1 SWAP3 POP POP PUSH2 0xC85 PUSH8 0xF3AA9DE1A5FA7D16 PUSH1 0xC0 SHL PUSH2 0x13DF JUMP JUMPDEST PUSH2 0xC99 PUSH8 0x7CDC0A34C80C2315 PUSH1 0xC0 SHL PUSH2 0x13DF JUMP JUMPDEST PUSH2 0xCAD PUSH8 0x4871E83078C67121 PUSH1 0xC0 SHL PUSH2 0x13DF JUMP JUMPDEST DUP2 PUSH2 0xCED JUMPI PUSH1 0x40 MLOAD PUSH32 0x8C379A000000000000000000000000000000000000000000000000000000000 DUP2 MSTORE PUSH1 0x4 ADD PUSH2 0xCE4 SWAP1 PUSH2 0x1991 JUMP JUMPDEST PUSH1 0x40 MLOAD DUP1 SWAP2 SUB SWAP1 REVERT JUMPDEST PUSH2 0xD01 PUSH8 0x415FC40DEABFF6B4 PUSH1 0xC0 SHL PUSH2 0x13DF JUMP JUMPDEST PUSH2 0xD15 PUSH8 0xD58C2C051222D35E PUSH1 0xC0 SHL PUSH2 0x13DF JUMP JUMPDEST PUSH1 0x0 DUP1 PUSH1 0x0 CALLER PUSH20 0xFFFFFFFFFFFFFFFFFFFFFFFFFFFFFFFFFFFFFFFF AND PUSH20 0xFFFFFFFFFFFFFFFFFFFFFFFFFFFFFFFFFFFFFFFF AND DUP2 MSTORE PUSH1 0x20 ADD SWAP1 DUP2 MSTORE PUSH1 0x20 ADD PUSH1 0x0 KECCAK256 DUP2 SWAP1 SSTORE POP PUSH2 0xD6D PUSH8 0xDA9111AABD2D9AD8 PUSH1 0xC0 SHL PUSH2 0x13DF JUMP JUMPDEST PUSH1 0x1 PUSH1 0x4 PUSH1 0x14 PUSH2 0x100 EXP DUP2 SLOAD DUP2 PUSH1 0xFF MUL NOT AND SWAP1 DUP4 ISZERO ISZERO MUL OR SWAP1 SSTORE POP PUSH2 0xD9C PUSH8 0x6CC3A482058FD242 PUSH1 0xC0 SHL PUSH2 0x13DF JUMP JUMPDEST PUSH2 0xDB0 PUSH8 0x6ABB0C9B7A318593 PUSH1 0xC0 SHL PUSH2 0x13DF JUMP JUMPDEST PUSH32 0x79F21F274BCDBA22F4DE57856002EF2DCF5EED39503E61AEAF5F593B6FFA79B9 DUP2 PUSH1 0x40 MLOAD PUSH2 0xDDF SWAP2 SWAP1 PUSH2 0x15C4 JUMP JUMPDEST PUSH1 0x40 MLOAD DUP1 SWAP2 SUB SWAP1 LOG1 POP POP JUMP JUMPDEST PUSH1 0x5 PUSH1 0x0 SWAP1 SLOAD SWAP1 PUSH2 0x100 EXP SWAP1 DIV PUSH20 0xFFFFFFFFFFFFFFFFFFFFFFFFFFFFFFFFFFFFFFFF AND DUP2 JUMP JUMPDEST PUSH1 0x0 PUSH1 0x20 MSTORE DUP1 PUSH1 0x0 MSTORE PUSH1 0x40 PUSH1 0x0 KECCAK256 PUSH1 0x0 SWAP2 POP SWAP1 POP SLOAD DUP2 JUMP JUMPDEST PUSH2 0xE3D PUSH8 0x79FEF8E0F8273DB3 PUSH1 0xC0 SHL PUSH2 0x13DF JUMP JUMPDEST PUSH2 0xE51 PUSH8 0xCB458F4C6FEB1362 PUSH1 0xC0 SHL PUSH2 0x13DF JUMP JUMPDEST PUSH2 0xE65 PUSH8 0x8C283582BC56EE05 PUSH1 0xC0 SHL PUSH2 0x13DF JUMP JUMPDEST PUSH2 0xE79 PUSH8 0xA1A826C7273B0D46 PUSH1 0xC0 SHL PUSH2 0x13DF JUMP JUMPDEST PUSH9 0x56BC75E2D63100000 PUSH2 0xE8C CALLVALUE PUSH2 0x13E2 JUMP JUMPDEST LT ISZERO PUSH2 0xECD JUMPI PUSH1 0x40 MLOAD PUSH32 0x8C379A000000000000000000000000000000000000000000000000000000000 DUP2 MSTORE PUSH1 0x4 ADD PUSH2 0xEC4 SWAP1 PUSH2 0x1A26 JUMP JUMPDEST PUSH1 0x40 MLOAD DUP1 SWAP2 SUB SWAP1 REVERT JUMPDEST PUSH2 0xEE1 PUSH8 0xDF948372A1BB1980 PUSH1 0xC0 SHL PUSH2 0x13DF JUMP JUMPDEST PUSH2 0xEF5 PUSH8 0x88AD9E841BD903CD PUSH1 0xC0 SHL PUSH2 0x13DF JUMP JUMPDEST PUSH2 0xF09 PUSH8 0x96A4D256CD1C0F02 PUSH1 0xC0 SHL PUSH2 0x13DF JUMP JUMPDEST PUSH2 0xF1D PUSH8 0x8D37C9FDDE05856 PUSH1 0xC0 SHL PUSH2 0x13DF JUMP JUMPDEST PUSH1 0x3 SLOAD PUSH1 0x2 SLOAD PUSH2 0xF2D SWAP2 SWAP1 PUSH2 0x1787 JUMP JUMPDEST TIMESTAMP LT PUSH2 0xF6E JUMPI PUSH1 0x40 MLOAD PUSH32 0x8C379A000000000000000000000000000000000000000000000000000000000 DUP2 MSTORE PUSH1 0x4 ADD PUSH2 0xF65 SWAP1 PUSH2 0x1A92 JUMP JUMPDEST PUSH1 0x40 MLOAD DUP1 SWAP2 SUB SWAP1 REVERT JUMPDEST PUSH2 0xF82 PUSH8 0x83FC8FFDDFC1499C PUSH1 0xC0 SHL PUSH2 0x13DF JUMP JUMPDEST PUSH2 0xF96 PUSH8 0xBF453418EEAC6005 PUSH1 0xC0 SHL PUSH2 0x13DF JUMP JUMPDEST CALLVALUE PUSH1 0x0 DUP1 CALLER PUSH20 0xFFFFFFFFFFFFFFFFFFFFFFFFFFFFFFFFFFFFFFFF AND PUSH20 0xFFFFFFFFFFFFFFFFFFFFFFFFFFFFFFFFFFFFFFFF AND DUP2 MSTORE PUSH1 0x20 ADD SWAP1 DUP2 MSTORE PUSH1 0x20 ADD PUSH1 0x0 KECCAK256 DUP2 SWAP1 SSTORE POP JUMP JUMPDEST PUSH1 0x0 PUSH2 0xFF1 PUSH8 0x4FEE39E6F3E5F168 PUSH1 0xC0 SHL PUSH2 0x13DF JUMP JUMPDEST PUSH2 0x1005 PUSH8 0x5AEEA0530C437A1D PUSH1 0xC0 SHL PUSH2 0x13DF JUMP JUMPDEST PUSH2 0x1019 PUSH8 0xBA81B9DF3BFB7232 PUSH1 0xC0 SHL PUSH2 0x13DF JUMP JUMPDEST PUSH1 0x0 PUSH1 0x5 PUSH1 0x0 SWAP1 SLOAD SWAP1 PUSH2 0x100 EXP SWAP1 DIV PUSH20 0xFFFFFFFFFFFFFFFFFFFFFFFFFFFFFFFFFFFFFFFF AND PUSH20 0xFFFFFFFFFFFFFFFFFFFFFFFFFFFFFFFFFFFFFFFF AND PUSH4 0xFEAF968C PUSH1 0x40 MLOAD DUP2 PUSH4 0xFFFFFFFF AND PUSH1 0xE0 SHL DUP2 MSTORE PUSH1 0x4 ADD PUSH1 0xA0 PUSH1 0x40 MLOAD DUP1 DUP4 SUB DUP2 DUP7 GAS STATICCALL ISZERO DUP1 ISZERO PUSH2 0x1088 JUMPI RETURNDATASIZE PUSH1 0x0 DUP1 RETURNDATACOPY RETURNDATASIZE PUSH1 0x0 REVERT JUMPDEST POP POP POP POP PUSH1 0x40 MLOAD RETURNDATASIZE PUSH1 0x1F NOT PUSH1 0x1F DUP3 ADD AND DUP3 ADD DUP1 PUSH1 0x40 MSTORE POP DUP2 ADD SWAP1 PUSH2 0x10AC SWAP2 SWAP1 PUSH2 0x1B35 JUMP JUMPDEST POP POP POP SWAP2 POP POP PUSH2 0x10C6 PUSH8 0x91AF0665C2B29ABA PUSH1 0xC0 SHL PUSH2 0x13DF JUMP JUMPDEST PUSH2 0x10DA PUSH8 0xA65062678DC0E5F7 PUSH1 0xC0 SHL PUSH2 0x13DF JUMP JUMPDEST DUP1 SWAP2 POP POP SWAP1 JUMP JUMPDEST PUSH2 0x10F5 PUSH8 0x5935161CC3E4E6AD PUSH1 0xC0 SHL PUSH2 0x13DF JUMP JUMPDEST PUSH2 0x1109 PUSH8 0xA131A2884563DE38 PUSH1 0xC0 SHL PUSH2 0x13DF JUMP JUMPDEST PUSH2 0x111D PUSH8 0x83438D7CA309BE3D PUSH1 0xC0 SHL PUSH2 0x13DF JUMP JUMPDEST PUSH2 0x1131 PUSH8 0xCB996D25827143B5 PUSH1 0xC0 SHL PUSH2 0x13DF JUMP JUMPDEST PUSH1 0x4 PUSH1 0x0 SWAP1 SLOAD SWAP1 PUSH2 0x100 EXP SWAP1 DIV PUSH20 0xFFFFFFFFFFFFFFFFFFFFFFFFFFFFFFFFFFFFFFFF AND PUSH20 0xFFFFFFFFFFFFFFFFFFFFFFFFFFFFFFFFFFFFFFFF AND CALLER PUSH20 0xFFFFFFFFFFFFFFFFFFFFFFFFFFFFFFFFFFFFFFFF AND EQ PUSH2 0x11C1 JUMPI PUSH1 0x40 MLOAD PUSH32 0x8C379A000000000000000000000000000000000000000000000000000000000 DUP2 MSTORE PUSH1 0x4 ADD PUSH2 0x11B8 SWAP1 PUSH2 0x1C22 JUMP JUMPDEST PUSH1 0x40 MLOAD DUP1 SWAP2 SUB SWAP1 REVERT JUMPDEST PUSH2 0x11D5 PUSH8 0xAEA03ACF485A8A4E PUSH1 0xC0 SHL PUSH2 0x13DF JUMP JUMPDEST PUSH2 0x11E9 PUSH8 0xA8F94E37F2A46D10 PUSH1 0xC0 SHL PUSH2 0x13DF JUMP JUMPDEST DUP1 PUSH1 0x0 DUP1 DUP5 PUSH20 0xFFFFFFFFFFFFFFFFFFFFFFFFFFFFFFFFFFFFFFFF AND PUSH20 0xFFFFFFFFFFFFFFFFFFFFFFFFFFFFFFFFFFFFFFFF AND DUP2 MSTORE PUSH1 0x20 ADD SWAP1 DUP2 MSTORE PUSH1 0x20 ADD PUSH1 0x0 KECCAK256 DUP2 SWAP1 SSTORE POP POP POP JUMP JUMPDEST PUSH1 0x4 PUSH1 0x14 SWAP1 SLOAD SWAP1 PUSH2 0x100 EXP SWAP1 DIV PUSH1 0xFF AND DUP2 JUMP JUMPDEST PUSH2 0x1257 PUSH8 0xFD326FA0B8643FCB PUSH1 0xC0 SHL PUSH2 0x13DF JUMP JUMPDEST PUSH2 0x126B PUSH8 0x2AD767C8A38D143E PUSH1 0xC0 SHL PUSH2 0x13DF JUMP JUMPDEST PUSH2 0x127F PUSH8 0xD05C710B36717348 PUSH1 0xC0 SHL PUSH2 0x13DF JUMP JUMPDEST PUSH2 0x1293 PUSH8 0x1C7BF30FBF475BB6 PUSH1 0xC0 SHL PUSH2 0x13DF JUMP JUMPDEST PUSH2 0x12A7 PUSH8 0xA56A7AB3DCC36754 PUSH1 0xC0 SHL PUSH2 0x13DF JUMP JUMPDEST PUSH1 0x1 PUSH1 0x0 SWAP1 SLOAD SWAP1 PUSH2 0x100 EXP SWAP1 DIV PUSH20 0xFFFFFFFFFFFFFFFFFFFFFFFFFFFFFFFFFFFFFFFF AND PUSH20 0xFFFFFFFFFFFFFFFFFFFFFFFFFFFFFFFFFFFFFFFF AND CALLER PUSH20 0xFFFFFFFFFFFFFFFFFFFFFFFFFFFFFFFFFFFFFFFF AND EQ PUSH2 0x1337 JUMPI PUSH1 0x40 MLOAD PUSH32 0x8C379A000000000000000000000000000000000000000000000000000000000 DUP2 MSTORE PUSH1 0x4 ADD PUSH2 0x132E SWAP1 PUSH2 0x1738 JUMP JUMPDEST PUSH1 0x40 MLOAD DUP1 SWAP2 SUB SWAP1 REVERT JUMPDEST PUSH2 0x134B PUSH8 0x5EF557679E0DFEE7 PUSH1 0xC0 SHL PUSH2 0x13DF JUMP JUMPDEST PUSH2 0x135F PUSH8 0x52DE0CAF6A3C7FE3 PUSH1 0xC0 SHL PUSH2 0x13DF JUMP JUMPDEST PUSH2 0x1373 PUSH8 0x7E094E0B8B0F1A49 PUSH1 0xC0 SHL PUSH2 0x13DF JUMP JUMPDEST PUSH2 0x1387 PUSH8 0xEFA50BBBD9E0CFAB PUSH1 0xC0 SHL PUSH2 0x13DF JUMP JUMPDEST PUSH2 0x139B PUSH8 0x4AC3096AB78FF7E7 PUSH1 0xC0 SHL PUSH2 0x13DF JUMP JUMPDEST DUP1 PUSH1 0x1 PUSH1 0x0 PUSH2 0x100 EXP DUP2 SLOAD DUP2 PUSH20 0xFFFFFFFFFFFFFFFFFFFFFFFFFFFFFFFFFFFFFFFF MUL NOT AND SWAP1 DUP4 PUSH20 0xFFFFFFFFFFFFFFFFFFFFFFFFFFFFFFFFFFFFFFFF AND MUL OR SWAP1 SSTORE POP POP JUMP JUMPDEST POP JUMP JUMPDEST PUSH1 0x0 PUSH2 0x13F8 PUSH8 0x33C132B2412AAF1E PUSH1 0xC0 SHL PUSH2 0x13DF JUMP JUMPDEST PUSH2 0x140C PUSH8 0xA5327C35213C9198 PUSH1 0xC0 SHL PUSH2 0x13DF JUMP JUMPDEST PUSH2 0x1420 PUSH8 0x2608C5C54368E5C2 PUSH1 0xC0 SHL PUSH2 0x13DF JUMP JUMPDEST PUSH1 0x0 PUSH2 0x142A PUSH2 0xFDB JUMP JUMPDEST SWAP1 POP PUSH2 0x1440 PUSH8 0xE40C7BEAFA4D2A6F PUSH1 0xC0 SHL PUSH2 0x13DF JUMP JUMPDEST PUSH2 0x1454 PUSH8 0x785BE5BFB1AA3060 PUSH1 0xC0 SHL PUSH2 0x13DF JUMP JUMPDEST PUSH4 0x5F5E100 DUP2 DUP5 PUSH2 0x1465 SWAP2 SWAP1 PUSH2 0x1C42 JUMP JUMPDEST PUSH2 0x146F SWAP2 SWAP1 PUSH2 0x1CB3 JUMP JUMPDEST SWAP2 POP POP SWAP2 SWAP1 POP JUMP JUMPDEST PUSH1 0x0 DUP1 REVERT JUMPDEST PUSH1 0x0 PUSH20 0xFFFFFFFFFFFFFFFFFFFFFFFFFFFFFFFFFFFFFFFF DUP3 AND SWAP1 POP SWAP2 SWAP1 POP JUMP JUMPDEST PUSH1 0x0 PUSH2 0x14A7 DUP3 PUSH2 0x147C JUMP JUMPDEST SWAP1 POP SWAP2 SWAP1 POP JUMP JUMPDEST PUSH2 0x14B7 DUP2 PUSH2 0x149C JUMP JUMPDEST DUP2 EQ PUSH2 0x14C2 JUMPI PUSH1 0x0 DUP1 REVERT JUMPDEST POP JUMP JUMPDEST PUSH1 0x0 DUP2 CALLDATALOAD SWAP1 POP PUSH2 0x14D4 DUP2 PUSH2 0x14AE JUMP JUMPDEST SWAP3 SWAP2 POP POP JUMP JUMPDEST PUSH1 0x0 PUSH1 0x20 DUP3 DUP5 SUB SLT ISZERO PUSH2 0x14F0 JUMPI PUSH2 0x14EF PUSH2 0x1477 JUMP JUMPDEST JUMPDEST PUSH1 0x0 PUSH2 0x14FE DUP5 DUP3 DUP6 ADD PUSH2 0x14C5 JUMP JUMPDEST SWAP2 POP POP SWAP3 SWAP2 POP POP JUMP JUMPDEST PUSH2 0x1510 DUP2 PUSH2 0x149C JUMP JUMPDEST DUP3 MSTORE POP POP JUMP JUMPDEST PUSH1 0x0 PUSH1 0x20 DUP3 ADD SWAP1 POP PUSH2 0x152B PUSH1 0x0 DUP4 ADD DUP5 PUSH2 0x1507 JUMP JUMPDEST SWAP3 SWAP2 POP POP JUMP JUMPDEST PUSH1 0x0 DUP2 SWAP1 POP SWAP2 SWAP1 POP JUMP JUMPDEST PUSH1 0x0 PUSH2 0x1556 PUSH2 0x1551 PUSH2 0x154C DUP5 PUSH2 0x147C JUMP JUMPDEST PUSH2 0x1531 JUMP JUMPDEST PUSH2 0x147C JUMP JUMPDEST SWAP1 POP SWAP2 SWAP1 POP JUMP JUMPDEST PUSH1 0x0 PUSH2 0x1568 DUP3 PUSH2 0x153B JUMP JUMPDEST SWAP1 POP SWAP2 SWAP1 POP JUMP JUMPDEST PUSH1 0x0 PUSH2 0x157A DUP3 PUSH2 0x155D JUMP JUMPDEST SWAP1 POP SWAP2 SWAP1 POP JUMP JUMPDEST PUSH2 0x158A DUP2 PUSH2 0x156F JUMP JUMPDEST DUP3 MSTORE POP POP JUMP JUMPDEST PUSH1 0x0 PUSH1 0x20 DUP3 ADD SWAP1 POP PUSH2 0x15A5 PUSH1 0x0 DUP4 ADD DUP5 PUSH2 0x1581 JUMP JUMPDEST SWAP3 SWAP2 POP POP JUMP JUMPDEST PUSH1 0x0 DUP2 SWAP1 POP SWAP2 SWAP1 POP JUMP JUMPDEST PUSH2 0x15BE DUP2 PUSH2 0x15AB JUMP JUMPDEST DUP3 MSTORE POP POP JUMP JUMPDEST PUSH1 0x0 PUSH1 0x20 DUP3 ADD SWAP1 POP PUSH2 0x15D9 PUSH1 0x0 DUP4 ADD DUP5 PUSH2 0x15B5 JUMP JUMPDEST SWAP3 SWAP2 POP POP JUMP JUMPDEST PUSH1 0x0 DUP2 SWAP1 POP SWAP2 SWAP1 POP JUMP JUMPDEST PUSH2 0x15F2 DUP2 PUSH2 0x15DF JUMP JUMPDEST DUP3 MSTORE POP POP JUMP JUMPDEST PUSH1 0x0 PUSH1 0x20 DUP3 ADD SWAP1 POP PUSH2 0x160D PUSH1 0x0 DUP4 ADD DUP5 PUSH2 0x15E9 JUMP JUMPDEST SWAP3 SWAP2 POP POP JUMP JUMPDEST PUSH2 0x161C DUP2 PUSH2 0x15AB JUMP JUMPDEST DUP2 EQ PUSH2 0x1627 JUMPI PUSH1 0x0 DUP1 REVERT JUMPDEST POP JUMP JUMPDEST PUSH1 0x0 DUP2 CALLDATALOAD SWAP1 POP PUSH2 0x1639 DUP2 PUSH2 0x1613 JUMP JUMPDEST SWAP3 SWAP2 POP POP JUMP JUMPDEST PUSH1 0x0 DUP1 PUSH1 0x40 DUP4 DUP6 SUB SLT ISZERO PUSH2 0x1656 JUMPI PUSH2 0x1655 PUSH2 0x1477 JUMP JUMPDEST JUMPDEST PUSH1 0x0 PUSH2 0x1664 DUP6 DUP3 DUP7 ADD PUSH2 0x14C5 JUMP JUMPDEST SWAP3 POP POP PUSH1 0x20 PUSH2 0x1675 DUP6 DUP3 DUP7 ADD PUSH2 0x162A JUMP JUMPDEST SWAP2 POP POP SWAP3 POP SWAP3 SWAP1 POP JUMP JUMPDEST PUSH1 0x0 DUP2 ISZERO ISZERO SWAP1 POP SWAP2 SWAP1 POP JUMP JUMPDEST PUSH2 0x1694 DUP2 PUSH2 0x167F JUMP JUMPDEST DUP3 MSTORE POP POP JUMP JUMPDEST PUSH1 0x0 PUSH1 0x20 DUP3 ADD SWAP1 POP PUSH2 0x16AF PUSH1 0x0 DUP4 ADD DUP5 PUSH2 0x168B JUMP JUMPDEST SWAP3 SWAP2 POP POP JUMP JUMPDEST PUSH1 0x0 DUP3 DUP3 MSTORE PUSH1 0x20 DUP3 ADD SWAP1 POP SWAP3 SWAP2 POP POP JUMP JUMPDEST PUSH32 0x746869732066756E6374696F6E2063616E206F6E6C792062652063616C6C6564 PUSH1 0x0 DUP3 ADD MSTORE PUSH32 0x206279206F776E65720000000000000000000000000000000000000000000000 PUSH1 0x20 DUP3 ADD MSTORE POP JUMP JUMPDEST PUSH1 0x0 PUSH2 0x1722 PUSH1 0x29 DUP4 PUSH2 0x16B5 JUMP JUMPDEST SWAP2 POP PUSH2 0x172D DUP3 PUSH2 0x16C6 JUMP JUMPDEST PUSH1 0x40 DUP3 ADD SWAP1 POP SWAP2 SWAP1 POP JUMP JUMPDEST PUSH1 0x0 PUSH1 0x20 DUP3 ADD SWAP1 POP DUP2 DUP2 SUB PUSH1 0x0 DUP4 ADD MSTORE PUSH2 0x1751 DUP2 PUSH2 0x1715 JUMP JUMPDEST SWAP1 POP SWAP2 SWAP1 POP JUMP JUMPDEST PUSH32 0x4E487B7100000000000000000000000000000000000000000000000000000000 PUSH1 0x0 MSTORE PUSH1 0x11 PUSH1 0x4 MSTORE PUSH1 0x24 PUSH1 0x0 REVERT JUMPDEST PUSH1 0x0 PUSH2 0x1792 DUP3 PUSH2 0x15AB JUMP JUMPDEST SWAP2 POP PUSH2 0x179D DUP4 PUSH2 0x15AB JUMP JUMPDEST SWAP3 POP DUP3 DUP3 ADD SWAP1 POP DUP1 DUP3 GT ISZERO PUSH2 0x17B5 JUMPI PUSH2 0x17B4 PUSH2 0x1758 JUMP JUMPDEST JUMPDEST SWAP3 SWAP2 POP POP JUMP JUMPDEST PUSH32 0x77696E646F77206973206E6F7420636C6F736564000000000000000000000000 PUSH1 0x0 DUP3 ADD MSTORE POP JUMP JUMPDEST PUSH1 0x0 PUSH2 0x17F1 PUSH1 0x14 DUP4 PUSH2 0x16B5 JUMP JUMPDEST SWAP2 POP PUSH2 0x17FC DUP3 PUSH2 0x17BB JUMP JUMPDEST PUSH1 0x20 DUP3 ADD SWAP1 POP SWAP2 SWAP1 POP JUMP JUMPDEST PUSH1 0x0 PUSH1 0x20 DUP3 ADD SWAP1 POP DUP2 DUP2 SUB PUSH1 0x0 DUP4 ADD MSTORE PUSH2 0x1820 DUP2 PUSH2 0x17E4 JUMP JUMPDEST SWAP1 POP SWAP2 SWAP1 POP JUMP JUMPDEST PUSH32 0x546172676572206973206E6F7420726561636865640000000000000000000000 PUSH1 0x0 DUP3 ADD MSTORE POP JUMP JUMPDEST PUSH1 0x0 PUSH2 0x185D PUSH1 0x15 DUP4 PUSH2 0x16B5 JUMP JUMPDEST SWAP2 POP PUSH2 0x1868 DUP3 PUSH2 0x1827 JUMP JUMPDEST PUSH1 0x20 DUP3 ADD SWAP1 POP SWAP2 SWAP1 POP JUMP JUMPDEST PUSH1 0x0 PUSH1 0x20 DUP3 ADD SWAP1 POP DUP2 DUP2 SUB PUSH1 0x0 DUP4 ADD MSTORE PUSH2 0x188C DUP2 PUSH2 0x1850 JUMP JUMPDEST SWAP1 POP SWAP2 SWAP1 POP JUMP JUMPDEST PUSH32 0x7468657265206973206E6F2066756E6420666F7220796F750000000000000000 PUSH1 0x0 DUP3 ADD MSTORE POP JUMP JUMPDEST PUSH1 0x0 PUSH2 0x18C9 PUSH1 0x18 DUP4 PUSH2 0x16B5 JUMP JUMPDEST SWAP2 POP PUSH2 0x18D4 DUP3 PUSH2 0x1893 JUMP JUMPDEST PUSH1 0x20 DUP3 ADD SWAP1 POP SWAP2 SWAP1 POP JUMP JUMPDEST PUSH1 0x0 PUSH1 0x20 DUP3 ADD SWAP1 POP DUP2 DUP2 SUB PUSH1 0x0 DUP4 ADD MSTORE PUSH2 0x18F8 DUP2 PUSH2 0x18BC JUMP JUMPDEST SWAP1 POP SWAP2 SWAP1 POP JUMP JUMPDEST PUSH1 0x0 DUP2 SWAP1 POP SWAP3 SWAP2 POP POP JUMP JUMPDEST POP JUMP JUMPDEST PUSH1 0x0 PUSH2 0x191A PUSH1 0x0 DUP4 PUSH2 0x18FF JUMP JUMPDEST SWAP2 POP PUSH2 0x1925 DUP3 PUSH2 0x190A JUMP JUMPDEST PUSH1 0x0 DUP3 ADD SWAP1 POP SWAP2 SWAP1 POP JUMP JUMPDEST PUSH1 0x0 PUSH2 0x193B DUP3 PUSH2 0x190D JUMP JUMPDEST SWAP2 POP DUP2 SWAP1 POP SWAP2 SWAP1 POP JUMP JUMPDEST PUSH32 0x7472616E73666572207478206661696C65640000000000000000000000000000 PUSH1 0x0 DUP3 ADD MSTORE POP JUMP JUMPDEST PUSH1 0x0 PUSH2 0x197B PUSH1 0x12 DUP4 PUSH2 0x16B5 JUMP JUMPDEST SWAP2 POP PUSH2 0x1986 DUP3 PUSH2 0x1945 JUMP JUMPDEST PUSH1 0x20 DUP3 ADD SWAP1 POP SWAP2 SWAP1 POP JUMP JUMPDEST PUSH1 0x0 PUSH1 0x20 DUP3 ADD SWAP1 POP DUP2 DUP2 SUB PUSH1 0x0 DUP4 ADD MSTORE PUSH2 0x19AA DUP2 PUSH2 0x196E JUMP JUMPDEST SWAP1 POP SWAP2 SWAP1 POP JUMP JUMPDEST PUSH1 0x0 PUSH1 0x40 DUP3 ADD SWAP1 POP PUSH2 0x19C6 PUSH1 0x0 DUP4 ADD DUP6 PUSH2 0x1507 JUMP JUMPDEST PUSH2 0x19D3 PUSH1 0x20 DUP4 ADD DUP5 PUSH2 0x15B5 JUMP JUMPDEST SWAP4 SWAP3 POP POP POP JUMP JUMPDEST PUSH32 0x73656E64206D6F72652065746800000000000000000000000000000000000000 PUSH1 0x0 DUP3 ADD MSTORE POP JUMP JUMPDEST PUSH1 0x0 PUSH2 0x1A10 PUSH1 0xD DUP4 PUSH2 0x16B5 JUMP JUMPDEST SWAP2 POP PUSH2 0x1A1B DUP3 PUSH2 0x19DA JUMP JUMPDEST PUSH1 0x20 DUP3 ADD SWAP1 POP SWAP2 SWAP1 POP JUMP JUMPDEST PUSH1 0x0 PUSH1 0x20 DUP3 ADD SWAP1 POP DUP2 DUP2 SUB PUSH1 0x0 DUP4 ADD MSTORE PUSH2 0x1A3F DUP2 PUSH2 0x1A03 JUMP JUMPDEST SWAP1 POP SWAP2 SWAP1 POP JUMP JUMPDEST PUSH32 0x77696E646F7720697320636C6F73656400000000000000000000000000000000 PUSH1 0x0 DUP3 ADD MSTORE POP JUMP JUMPDEST PUSH1 0x0 PUSH2 0x1A7C PUSH1 0x10 DUP4 PUSH2 0x16B5 JUMP JUMPDEST SWAP2 POP PUSH2 0x1A87 DUP3 PUSH2 0x1A46 JUMP JUMPDEST PUSH1 0x20 DUP3 ADD SWAP1 POP SWAP2 SWAP1 POP JUMP JUMPDEST PUSH1 0x0 PUSH1 0x20 DUP3 ADD SWAP1 POP DUP2 DUP2 SUB PUSH1 0x0 DUP4 ADD MSTORE PUSH2 0x1AAB DUP2 PUSH2 0x1A6F JUMP JUMPDEST SWAP1 POP SWAP2 SWAP1 POP JUMP JUMPDEST PUSH1 0x0 PUSH10 0xFFFFFFFFFFFFFFFFFFFF DUP3 AND SWAP1 POP SWAP2 SWAP1 POP JUMP JUMPDEST PUSH2 0x1AD1 DUP2 PUSH2 0x1AB2 JUMP JUMPDEST DUP2 EQ PUSH2 0x1ADC JUMPI PUSH1 0x0 DUP1 REVERT JUMPDEST POP JUMP JUMPDEST PUSH1 0x0 DUP2 MLOAD SWAP1 POP PUSH2 0x1AEE DUP2 PUSH2 0x1AC8 JUMP JUMPDEST SWAP3 SWAP2 POP POP JUMP JUMPDEST PUSH2 0x1AFD DUP2 PUSH2 0x15DF JUMP JUMPDEST DUP2 EQ PUSH2 0x1B08 JUMPI PUSH1 0x0 DUP1 REVERT JUMPDEST POP JUMP JUMPDEST PUSH1 0x0 DUP2 MLOAD SWAP1 POP PUSH2 0x1B1A DUP2 PUSH2 0x1AF4 JUMP JUMPDEST SWAP3 SWAP2 POP POP JUMP JUMPDEST PUSH1 0x0 DUP2 MLOAD SWAP1 POP PUSH2 0x1B2F DUP2 PUSH2 0x1613 JUMP JUMPDEST SWAP3 SWAP2 POP POP JUMP JUMPDEST PUSH1 0x0 DUP1 PUSH1 0x0 DUP1 PUSH1 0x0 PUSH1 0xA0 DUP7 DUP9 SUB SLT ISZERO PUSH2 0x1B51 JUMPI PUSH2 0x1B50 PUSH2 0x1477 JUMP JUMPDEST JUMPDEST PUSH1 0x0 PUSH2 0x1B5F DUP9 DUP3 DUP10 ADD PUSH2 0x1ADF JUMP JUMPDEST SWAP6 POP POP PUSH1 0x20 PUSH2 0x1B70 DUP9 DUP3 DUP10 ADD PUSH2 0x1B0B JUMP JUMPDEST SWAP5 POP POP PUSH1 0x40 PUSH2 0x1B81 DUP9 DUP3 DUP10 ADD PUSH2 0x1B20 JUMP JUMPDEST SWAP4 POP POP PUSH1 0x60 PUSH2 0x1B92 DUP9 DUP3 DUP10 ADD PUSH2 0x1B20 JUMP JUMPDEST SWAP3 POP POP PUSH1 0x80 PUSH2 0x1BA3 DUP9 DUP3 DUP10 ADD PUSH2 0x1ADF JUMP JUMPDEST SWAP2 POP POP SWAP3 SWAP6 POP SWAP3 SWAP6 SWAP1 SWAP4 POP JUMP JUMPDEST PUSH32 0x6F6E6C7920657263323020636F6E74726163742063616E2063616C6C20746869 PUSH1 0x0 DUP3 ADD MSTORE PUSH32 0x732066756E6374696F6E00000000000000000000000000000000000000000000 PUSH1 0x20 DUP3 ADD MSTORE POP JUMP JUMPDEST PUSH1 0x0 PUSH2 0x1C0C PUSH1 0x2A DUP4 PUSH2 0x16B5 JUMP JUMPDEST SWAP2 POP PUSH2 0x1C17 DUP3 PUSH2 0x1BB0 JUMP JUMPDEST PUSH1 0x40 DUP3 ADD SWAP1 POP SWAP2 SWAP1 POP JUMP JUMPDEST PUSH1 0x0 PUSH1 0x20 DUP3 ADD SWAP1 POP DUP2 DUP2 SUB PUSH1 0x0 DUP4 ADD MSTORE PUSH2 0x1C3B DUP2 PUSH2 0x1BFF JUMP JUMPDEST SWAP1 POP SWAP2 SWAP1 POP JUMP JUMPDEST PUSH1 0x0 PUSH2 0x1C4D DUP3 PUSH2 0x15AB JUMP JUMPDEST SWAP2 POP PUSH2 0x1C58 DUP4 PUSH2 0x15AB JUMP JUMPDEST SWAP3 POP DUP3 DUP3 MUL PUSH2 0x1C66 DUP2 PUSH2 0x15AB JUMP JUMPDEST SWAP2 POP DUP3 DUP3 DIV DUP5 EQ DUP4 ISZERO OR PUSH2 0x1C7D JUMPI PUSH2 0x1C7C PUSH2 0x1758 JUMP JUMPDEST JUMPDEST POP SWAP3 SWAP2 POP POP JUMP JUMPDEST PUSH32 0x4E487B7100000000000000000000000000000000000000000000000000000000 PUSH1 0x0 MSTORE PUSH1 0x12 PUSH1 0x4 MSTORE PUSH1 0x24 PUSH1 0x0 REVERT JUMPDEST PUSH1 0x0 PUSH2 0x1CBE DUP3 PUSH2 0x15AB JUMP JUMPDEST SWAP2 POP PUSH2 0x1CC9 DUP4 PUSH2 0x15AB JUMP JUMPDEST SWAP3 POP DUP3 PUSH2 0x1CD9 JUMPI PUSH2 0x1CD8 PUSH2 0x1C84 JUMP JUMPDEST JUMPDEST DUP3 DUP3 DIV SWAP1 POP SWAP3 SWAP2 POP POP JUMP INVALID LOG2 PUSH5 0x6970667358 0x22 SLT KECCAK256 SWAP6 0x28 NUMBER SWAP5 0xCC CALLDATALOAD PUSH11 0x81C35655A265B1B1616076 MCOPY MSTORE SWAP1 0xE2 SWAP7 0xCC STATICCALL SWAP1 0xE4 0x25 DIV 0xD KECCAK256 PUSH25 0x64736F6C634300081C00330000000000000000000000000000 "},"gasEstimates":{"creation":{"codeDepositCost":"1490000","executionCost":"infinite","totalCost":"infinite"},"external":{"dataFeed()":"infinite","fund()":"infinite","fundersToAmount(address)":"2814","getChainlinkDataFeedLatestAnswer()":"infinite","getFund()":"infinite","getFundSuccess()":"2609","owner()":"2559","refund()":"infinite","setErc20Addr(address)":"infinite","setFunderToAmount(address,uint256)":"infinite","transferOwnership(address)":"infinite"},"internal":{"c_c76aa760(bytes8)":"11","c_falsec76aa760(bytes8)":"infinite","c_truec76aa760(bytes8)":"infinite","convertEthToUsd(uint256)":"infinite"}},"methodIdentifiers":{"dataFeed()":"9e42ff90","fund()":"b60d4288","fundersToAmount(address)":"9f883a05","getChainlinkDataFeedLatestAnswer()":"bea4dfb5","getFund()":"8edd6eb6","getFundSuccess()":"da4658e0","owner()":"8da5cb5b","refund()":"590e1ae3","setErc20Addr(address)":"13ffff01","setFunderToAmount(address,uint256)":"d39cf006","transferOwnership(address)":"f2fde38b"}},"storageLayout":{"storage":[{"astId":465,"contract":"contracts/FundMe.sol:FundMe","label":"fundersToAmount","offset":0,"slot":"0","type":"t_mapping(t_address,t_uint256)"},{"astId":467,"contract":"contracts/FundMe.sol:FundMe","label":"owner","offset":0,"slot":"1","type":"t_address"},{"astId":469,"contract":"contracts/FundMe.sol:FundMe","label":"deployTimeStamp","offset":0,"slot":"2","type":"t_uint256"},{"astId":471,"contract":"contracts/FundMe.sol:FundMe","label":"lockTime","offset":0,"slot":"3","type":"t_uint256"},{"astId":473,"contract":"contracts/FundMe.sol:FundMe","label":"erc20Addr","offset":0,"slot":"4","type":"t_address"},{"astId":476,"contract":"contracts/FundMe.sol:FundMe","label":"getFundSuccess","offset":20,"slot":"4","type":"t_bool"},{"astId":479,"contract":"contracts/FundMe.sol:FundMe","label":"dataFeed","offset":0,"slot":"5","type":"t_contract(AggregatorV3Interface)104"}],"types":{"t_address":{"encoding":"inplace","label":"address","numberOfBytes":"20"},"t_bool":{"encoding":"inplace","label":"bool","numberOfBytes":"1"},"t_contract(AggregatorV3Interface)104":{"encoding":"inplace","label":"contract AggregatorV3Interface","numberOfBytes":"20"},"t_mapping(t_address,t_uint256)":{"encoding":"mapping","key":"t_address","label":"mapping(address => uint256)","numberOfBytes":"32","value":"t_uint256"},"t_uint256":{"encoding":"inplace","label":"uint256","numberOfBytes":"32"}}},"userdoc":{"kind":"user","methods":{},"version":1}}}}