{
  "_format": "hh-sol-artifact-1",
  "contractName": "FundMe",
  "sourceName": "contracts/FundMe.sol",
  "abi": [
    {
      "inputs": [
        {
          "internalType": "uint256",
          "name": "_lockTime",
          "type": "uint256"
        }
      ],
      "stateMutability": "nonpayable",
      "type": "constructor"
    },
    {
      "inputs": [],
      "name": "fund",
      "outputs": [],
      "stateMutability": "payable",
      "type": "function"
    },
    {
      "inputs": [
        {
          "internalType": "address",
          "name": "",
          "type": "address"
        }
      ],
      "name": "fundersToAmount",
      "outputs": [
        {
          "internalType": "uint256",
          "name": "",
          "type": "uint256"
        }
      ],
      "stateMutability": "view",
      "type": "function"
    },
    {
      "inputs": [],
      "name": "getChainlinkDataFeedLatestAnswer",
      "outputs": [
        {
          "internalType": "int256",
          "name": "",
          "type": "int256"
        }
      ],
      "stateMutability": "view",
      "type": "function"
    },
    {
      "inputs": [],
      "name": "getFund",
      "outputs": [],
      "stateMutability": "payable",
      "type": "function"
    },
    {
      "inputs": [],
      "name": "getFundSuccess",
      "outputs": [
        {
          "internalType": "bool",
          "name": "",
          "type": "bool"
        }
      ],
      "stateMutability": "view",
      "type": "function"
    },
    {
      "inputs": [],
      "name": "owner",
      "outputs": [
        {
          "internalType": "address",
          "name": "",
          "type": "address"
        }
      ],
      "stateMutability": "view",
      "type": "function"
    },
    {
      "inputs": [],
      "name": "refund",
      "outputs": [],
      "stateMutability": "payable",
      "type": "function"
    },
    {
      "inputs": [
        {
          "internalType": "address",
          "name": "_erc20Addr",
          "type": "address"
        }
      ],
      "name": "setErc20Addr",
      "outputs": [],
      "stateMutability": "nonpayable",
      "type": "function"
    },
    {
      "inputs": [
        {
          "internalType": "address",
          "name": "funder",
          "type": "address"
        },
        {
          "internalType": "uint256",
          "name": "amountToUpdate",
          "type": "uint256"
        }
      ],
      "name": "setFunderToAmount",
      "outputs": [],
      "stateMutability": "nonpayable",
      "type": "function"
    },
    {
      "inputs": [
        {
          "internalType": "address",
          "name": "newOwner",
          "type": "address"
        }
      ],
      "name": "transferOwnership",
      "outputs": [],
      "stateMutability": "nonpayable",
      "type": "function"
    }
  ],
  "bytecode": "0x60806040526000600460146101000a81548160ff02191690831515021790555034801561002b57600080fd5b50604051611485380380611485833981810160405281019061004d9190610132565b73694aa1769357215de4fac081bf1f309adc325306600560006101000a81548173ffffffffffffffffffffffffffffffffffffffff021916908373ffffffffffffffffffffffffffffffffffffffff16021790555033600160006101000a81548173ffffffffffffffffffffffffffffffffffffffff021916908373ffffffffffffffffffffffffffffffffffffffff16021790555042600281905550806003819055505061015f565b600080fd5b6000819050919050565b61010f816100fc565b811461011a57600080fd5b50565b60008151905061012c81610106565b92915050565b600060208284031215610148576101476100f7565b5b60006101568482850161011d565b91505092915050565b6113178061016e6000396000f3fe6080604052600436106100915760003560e01c8063b60d428811610059578063b60d42881461013b578063bea4dfb514610145578063d39cf00614610170578063da4658e014610199578063f2fde38b146101c457610091565b806313ffff0114610096578063590e1ae3146100bf5780638da5cb5b146100c95780638edd6eb6146100f45780639f883a05146100fe575b600080fd5b3480156100a257600080fd5b506100bd60048036038101906100b89190610b7a565b6101ed565b005b6100c76102c1565b005b3480156100d557600080fd5b506100de61051a565b6040516100eb9190610bb6565b60405180910390f35b6100fc610540565b005b34801561010a57600080fd5b5061012560048036038101906101209190610b7a565b610786565b6040516101329190610bea565b60405180910390f35b61014361079e565b005b34801561015157600080fd5b5061015a610888565b6040516101679190610c1e565b60405180910390f35b34801561017c57600080fd5b5061019760048036038101906101929190610c65565b610929565b005b3480156101a557600080fd5b506101ae610a00565b6040516101bb9190610cc0565b60405180910390f35b3480156101d057600080fd5b506101eb60048036038101906101e69190610b7a565b610a13565b005b600160009054906101000a900473ffffffffffffffffffffffffffffffffffffffff1673ffffffffffffffffffffffffffffffffffffffff163373ffffffffffffffffffffffffffffffffffffffff161461027d576040517f08c379a000000000000000000000000000000000000000000000000000000000815260040161027490610d5e565b60405180910390fd5b80600460006101000a81548173ffffffffffffffffffffffffffffffffffffffff021916908373ffffffffffffffffffffffffffffffffffffffff16021790555050565b6003546002546102d19190610dad565b421015610313576040517f08c379a000000000000000000000000000000000000000000000000000000000815260040161030a90610e2d565b60405180910390fd5b683635c9adc5dea0000061032647610ae7565b10610366576040517f08c379a000000000000000000000000000000000000000000000000000000000815260040161035d90610e99565b60405180910390fd5b60008060003373ffffffffffffffffffffffffffffffffffffffff1673ffffffffffffffffffffffffffffffffffffffff16815260200190815260200160002054116103e7576040517f08c379a00000000000000000000000000000000000000000000000000000000081526004016103de90610f05565b60405180910390fd5b60003373ffffffffffffffffffffffffffffffffffffffff166000803373ffffffffffffffffffffffffffffffffffffffff1673ffffffffffffffffffffffffffffffffffffffff1681526020019081526020016000205460405161044b90610f56565b60006040518083038185875af1925050503d8060008114610488576040519150601f19603f3d011682016040523d82523d6000602084013e61048d565b606091505b505080915050806104d3576040517f08c379a00000000000000000000000000000000000000000000000000000000081526004016104ca90610fb7565b60405180910390fd5b60008060003373ffffffffffffffffffffffffffffffffffffffff1673ffffffffffffffffffffffffffffffffffffffff1681526020019081526020016000208190555050565b600160009054906101000a900473ffffffffffffffffffffffffffffffffffffffff1681565b6003546002546105509190610dad565b421015610592576040517f08c379a000000000000000000000000000000000000000000000000000000000815260040161058990610e2d565b60405180910390fd5b600160009054906101000a900473ffffffffffffffffffffffffffffffffffffffff1673ffffffffffffffffffffffffffffffffffffffff163373ffffffffffffffffffffffffffffffffffffffff1614610622576040517f08c379a000000000000000000000000000000000000000000000000000000000815260040161061990610d5e565b60405180910390fd5b683635c9adc5dea0000061063547610ae7565b1015610676576040517f08c379a000000000000000000000000000000000000000000000000000000000815260040161066d90610e99565b60405180910390fd5b60003373ffffffffffffffffffffffffffffffffffffffff164760405161069c90610f56565b60006040518083038185875af1925050503d80600081146106d9576040519150601f19603f3d011682016040523d82523d6000602084013e6106de565b606091505b50508091505080610724576040517f08c379a000000000000000000000000000000000000000000000000000000000815260040161071b90610fb7565b60405180910390fd5b60008060003373ffffffffffffffffffffffffffffffffffffffff1673ffffffffffffffffffffffffffffffffffffffff168152602001908152602001600020819055506001600460146101000a81548160ff02191690831515021790555050565b60006020528060005260406000206000915090505481565b68056bc75e2d631000006107b134610ae7565b10156107f2576040517f08c379a00000000000000000000000000000000000000000000000000000000081526004016107e990611023565b60405180910390fd5b6003546002546108029190610dad565b4210610843576040517f08c379a000000000000000000000000000000000000000000000000000000000815260040161083a9061108f565b60405180910390fd5b346000803373ffffffffffffffffffffffffffffffffffffffff1673ffffffffffffffffffffffffffffffffffffffff16815260200190815260200160002081905550565b600080600560009054906101000a900473ffffffffffffffffffffffffffffffffffffffff1673ffffffffffffffffffffffffffffffffffffffff1663feaf968c6040518163ffffffff1660e01b815260040160a060405180830381865afa1580156108f8573d6000803e3d6000fd5b505050506040513d601f19601f8201168201806040525081019061091c9190611132565b5050509150508091505090565b600460009054906101000a900473ffffffffffffffffffffffffffffffffffffffff1673ffffffffffffffffffffffffffffffffffffffff163373ffffffffffffffffffffffffffffffffffffffff16146109b9576040517f08c379a00000000000000000000000000000000000000000000000000000000081526004016109b09061121f565b60405180910390fd5b806000808473ffffffffffffffffffffffffffffffffffffffff1673ffffffffffffffffffffffffffffffffffffffff168152602001908152602001600020819055505050565b600460149054906101000a900460ff1681565b600160009054906101000a900473ffffffffffffffffffffffffffffffffffffffff1673ffffffffffffffffffffffffffffffffffffffff163373ffffffffffffffffffffffffffffffffffffffff1614610aa3576040517f08c379a0000000000000000000000000000000000000000000000000000000008152600401610a9a90610d5e565b60405180910390fd5b80600160006101000a81548173ffffffffffffffffffffffffffffffffffffffff021916908373ffffffffffffffffffffffffffffffffffffffff16021790555050565b600080610af2610888565b90506305f5e1008184610b05919061123f565b610b0f91906112b0565b915050919050565b600080fd5b600073ffffffffffffffffffffffffffffffffffffffff82169050919050565b6000610b4782610b1c565b9050919050565b610b5781610b3c565b8114610b6257600080fd5b50565b600081359050610b7481610b4e565b92915050565b600060208284031215610b9057610b8f610b17565b5b6000610b9e84828501610b65565b91505092915050565b610bb081610b3c565b82525050565b6000602082019050610bcb6000830184610ba7565b92915050565b6000819050919050565b610be481610bd1565b82525050565b6000602082019050610bff6000830184610bdb565b92915050565b6000819050919050565b610c1881610c05565b82525050565b6000602082019050610c336000830184610c0f565b92915050565b610c4281610bd1565b8114610c4d57600080fd5b50565b600081359050610c5f81610c39565b92915050565b60008060408385031215610c7c57610c7b610b17565b5b6000610c8a85828601610b65565b9250506020610c9b85828601610c50565b9150509250929050565b60008115159050919050565b610cba81610ca5565b82525050565b6000602082019050610cd56000830184610cb1565b92915050565b600082825260208201905092915050565b7f746869732066756e6374696f6e2063616e206f6e6c792062652063616c6c656460008201527f206279206f776e65720000000000000000000000000000000000000000000000602082015250565b6000610d48602983610cdb565b9150610d5382610cec565b604082019050919050565b60006020820190508181036000830152610d7781610d3b565b9050919050565b7f4e487b7100000000000000000000000000000000000000000000000000000000600052601160045260246000fd5b6000610db882610bd1565b9150610dc383610bd1565b9250828201905080821115610ddb57610dda610d7e565b5b92915050565b7f77696e646f77206973206e6f7420636c6f736564000000000000000000000000600082015250565b6000610e17601483610cdb565b9150610e2282610de1565b602082019050919050565b60006020820190508181036000830152610e4681610e0a565b9050919050565b7f546172676572206973206e6f7420726561636865640000000000000000000000600082015250565b6000610e83601583610cdb565b9150610e8e82610e4d565b602082019050919050565b60006020820190508181036000830152610eb281610e76565b9050919050565b7f7468657273206973206e6f2066756e6420666f7220796f750000000000000000600082015250565b6000610eef601883610cdb565b9150610efa82610eb9565b602082019050919050565b60006020820190508181036000830152610f1e81610ee2565b9050919050565b600081905092915050565b50565b6000610f40600083610f25565b9150610f4b82610f30565b600082019050919050565b6000610f6182610f33565b9150819050919050565b7f7472616e73666572207478206661696c65640000000000000000000000000000600082015250565b6000610fa1601283610cdb565b9150610fac82610f6b565b602082019050919050565b60006020820190508181036000830152610fd081610f94565b9050919050565b7f73656e64206d6f72652065746800000000000000000000000000000000000000600082015250565b600061100d600d83610cdb565b915061101882610fd7565b602082019050919050565b6000602082019050818103600083015261103c81611000565b9050919050565b7f77696e646f7720697320636c6f73656400000000000000000000000000000000600082015250565b6000611079601083610cdb565b915061108482611043565b602082019050919050565b600060208201905081810360008301526110a88161106c565b9050919050565b600069ffffffffffffffffffff82169050919050565b6110ce816110af565b81146110d957600080fd5b50565b6000815190506110eb816110c5565b92915050565b6110fa81610c05565b811461110557600080fd5b50565b600081519050611117816110f1565b92915050565b60008151905061112c81610c39565b92915050565b600080600080600060a0868803121561114e5761114d610b17565b5b600061115c888289016110dc565b955050602061116d88828901611108565b945050604061117e8882890161111d565b935050606061118f8882890161111d565b92505060806111a0888289016110dc565b9150509295509295909350565b7f6f6e6c7920657263323020636f6e74726163742063616e2063616c6c2074686960008201527f732066756e6374696f6e00000000000000000000000000000000000000000000602082015250565b6000611209602a83610cdb565b9150611214826111ad565b604082019050919050565b60006020820190508181036000830152611238816111fc565b9050919050565b600061124a82610bd1565b915061125583610bd1565b925082820261126381610bd1565b9150828204841483151761127a57611279610d7e565b5b5092915050565b7f4e487b7100000000000000000000000000000000000000000000000000000000600052601260045260246000fd5b60006112bb82610bd1565b91506112c683610bd1565b9250826112d6576112d5611281565b5b82820490509291505056fea26469706673582212200264a3110a7b1a8a1dde32d02f11fbee01f6c9ede4a311dcf16d7225396b88f464736f6c634300081c0033",
  "linkReferences": {},
  "deployedLinkReferences": {}
}