{
  "_format": "hh-sol-artifact-1",
  "contractName": "FundMe",
  "sourceName": "contracts/FundMe.sol",
  "abi": [
    {
      "inputs": [
        {
          "internalType": "uint256",
          "name": "_lockTime",
          "type": "uint256"
        },
        {
          "internalType": "address",
          "name": "dataFeedAddr",
          "type": "address"
        }
      ],
      "stateMutability": "nonpayable",
      "type": "constructor"
    },
    {
      "anonymous": false,
      "inputs": [
        {
          "indexed": false,
          "internalType": "uint256",
          "name": "",
          "type": "uint256"
        }
      ],
      "name": "FundWithdrawnByOwner",
      "type": "event"
    },
    {
      "anonymous": false,
      "inputs": [
        {
          "indexed": false,
          "internalType": "address",
          "name": "",
          "type": "address"
        },
        {
          "indexed": false,
          "internalType": "uint256",
          "name": "",
          "type": "uint256"
        }
      ],
      "name": "ReFundWithdrawnByOwner",
      "type": "event"
    },
    {
      "inputs": [],
      "name": "dataFeed",
      "outputs": [
        {
          "internalType": "contract AggregatorV3Interface",
          "name": "",
          "type": "address"
        }
      ],
      "stateMutability": "view",
      "type": "function"
    },
    {
      "inputs": [],
      "name": "fund",
      "outputs": [],
      "stateMutability": "payable",
      "type": "function"
    },
    {
      "inputs": [
        {
          "internalType": "address",
          "name": "",
          "type": "address"
        }
      ],
      "name": "fundersToAmount",
      "outputs": [
        {
          "internalType": "uint256",
          "name": "",
          "type": "uint256"
        }
      ],
      "stateMutability": "view",
      "type": "function"
    },
    {
      "inputs": [],
      "name": "getChainlinkDataFeedLatestAnswer",
      "outputs": [
        {
          "internalType": "int256",
          "name": "",
          "type": "int256"
        }
      ],
      "stateMutability": "view",
      "type": "function"
    },
    {
      "inputs": [],
      "name": "getFund",
      "outputs": [],
      "stateMutability": "payable",
      "type": "function"
    },
    {
      "inputs": [],
      "name": "getFundSuccess",
      "outputs": [
        {
          "internalType": "bool",
          "name": "",
          "type": "bool"
        }
      ],
      "stateMutability": "view",
      "type": "function"
    },
    {
      "inputs": [],
      "name": "owner",
      "outputs": [
        {
          "internalType": "address",
          "name": "",
          "type": "address"
        }
      ],
      "stateMutability": "view",
      "type": "function"
    },
    {
      "inputs": [],
      "name": "refund",
      "outputs": [],
      "stateMutability": "payable",
      "type": "function"
    },
    {
      "inputs": [
        {
          "internalType": "address",
          "name": "_erc20Addr",
          "type": "address"
        }
      ],
      "name": "setErc20Addr",
      "outputs": [],
      "stateMutability": "nonpayable",
      "type": "function"
    },
    {
      "inputs": [
        {
          "internalType": "address",
          "name": "funder",
          "type": "address"
        },
        {
          "internalType": "uint256",
          "name": "amountToUpdate",
          "type": "uint256"
        }
      ],
      "name": "setFunderToAmount",
      "outputs": [],
      "stateMutability": "nonpayable",
      "type": "function"
    },
    {
      "inputs": [
        {
          "internalType": "address",
          "name": "newOwner",
          "type": "address"
        }
      ],
      "name": "transferOwnership",
      "outputs": [],
      "stateMutability": "nonpayable",
      "type": "function"
    }
  ],
  "bytecode": "0x60806040526000600460146101000a81548160ff02191690831515021790555034801561002b57600080fd5b50604051611f6b380380611f6b833981810160405281019061004d9190610202565b6100676774dc0c85e18becdb60c01b61016660201b60201c565b61008167ddd6799fc2a4684960c01b61016660201b60201c565b80600560006101000a81548173ffffffffffffffffffffffffffffffffffffffff021916908373ffffffffffffffffffffffffffffffffffffffff1602179055506100dc676c5615b72f8eba9760c01b61016660201b60201c565b33600160006101000a81548173ffffffffffffffffffffffffffffffffffffffff021916908373ffffffffffffffffffffffffffffffffffffffff160217905550610137677ad8baed20dacb5560c01b61016660201b60201c565b4260028190555061015867371960203f97552460c01b61016660201b60201c565b816003819055505050610242565b50565b600080fd5b6000819050919050565b6101818161016e565b811461018c57600080fd5b50565b60008151905061019e81610178565b92915050565b600073ffffffffffffffffffffffffffffffffffffffff82169050919050565b60006101cf826101a4565b9050919050565b6101df816101c4565b81146101ea57600080fd5b50565b6000815190506101fc816101d6565b92915050565b6000806040838503121561021957610218610169565b5b60006102278582860161018f565b9250506020610238858286016101ed565b9150509250929050565b611d1a806102516000396000f3fe60806040526004361061009c5760003560e01c80639f883a05116100645780639f883a0514610134578063b60d428814610171578063bea4dfb51461017b578063d39cf006146101a6578063da4658e0146101cf578063f2fde38b146101fa5761009c565b806313ffff01146100a1578063590e1ae3146100ca5780638da5cb5b146100d45780638edd6eb6146100ff5780639e42ff9014610109575b600080fd5b3480156100ad57600080fd5b506100c860048036038101906100c391906114da565b610223565b005b6100d26103bf565b005b3480156100e057600080fd5b506100e961089a565b6040516100f69190611516565b60405180910390f35b6101076108c0565b005b34801561011557600080fd5b5061011e610deb565b60405161012b9190611590565b60405180910390f35b34801561014057600080fd5b5061015b600480360381019061015691906114da565b610e11565b60405161016891906115c4565b60405180910390f35b610179610e29565b005b34801561018757600080fd5b50610190610fdb565b60405161019d91906115f8565b60405180910390f35b3480156101b257600080fd5b506101cd60048036038101906101c8919061163f565b6110e1565b005b3480156101db57600080fd5b506101e4611230565b6040516101f1919061169a565b60405180910390f35b34801561020657600080fd5b50610221600480360381019061021c91906114da565b611243565b005b610237679146a69194fbd27460c01b6113df565b61024b672ad767c8a38d143e60c01b6113df565b61025f67d05c710b3671734860c01b6113df565b610273671c7bf30fbf475bb660c01b6113df565b61028767a56a7ab3dcc3675460c01b6113df565b600160009054906101000a900473ffffffffffffffffffffffffffffffffffffffff1673ffffffffffffffffffffffffffffffffffffffff163373ffffffffffffffffffffffffffffffffffffffff1614610317576040517f08c379a000000000000000000000000000000000000000000000000000000000815260040161030e90611738565b60405180910390fd5b61032b675ef557679e0dfee760c01b6113df565b61033f6752de0caf6a3c7fe360c01b6113df565b610353671ce0597c80a150a560c01b6113df565b6103676733f2d1b3ef61fdb760c01b6113df565b61037b6761ee721b2263562960c01b6113df565b80600460006101000a81548173ffffffffffffffffffffffffffffffffffffffff021916908373ffffffffffffffffffffffffffffffffffffffff16021790555050565b6103d3672badae3474e65ee360c01b6113df565b6103e767de17d2049558bc3760c01b6113df565b6103fb672f016dfa7e6b84f560c01b6113df565b61040f67aea51c685824c45460c01b6113df565b61042367f4257f01fad9006660c01b6113df565b6003546002546104339190611787565b421015610475576040517f08c379a000000000000000000000000000000000000000000000000000000000815260040161046c90611807565b60405180910390fd5b61048967bdc1a949455c474a60c01b6113df565b61049d6785d3dc2d71a4a8c060c01b6113df565b6104b167820c0af966460ed560c01b6113df565b6104c567f9c418ceb22aac3c60c01b6113df565b6104d967666ee8b351dfb20f60c01b6113df565b6104ed6791fbda4b5b86e3c860c01b6113df565b6105006648f4073cb3305e60c01b6113df565b683635c9adc5dea00000610513476113e2565b10610553576040517f08c379a000000000000000000000000000000000000000000000000000000000815260040161054a90611873565b60405180910390fd5b61056767e6395e04affb8b7160c01b6113df565b61057b6748ad80bc705ed3a160c01b6113df565b61058f67b56c1c6dc62659fc60c01b6113df565b6105a367816c7c480a260c8a60c01b6113df565b60008060003373ffffffffffffffffffffffffffffffffffffffff1673ffffffffffffffffffffffffffffffffffffffff1681526020019081526020016000205411610624576040517f08c379a000000000000000000000000000000000000000000000000000000000815260040161061b906118df565b60405180910390fd5b61063867266283b3c7f6200860c01b6113df565b61064c677e93378cf58a89dd60c01b6113df565b6106606766893d0d625d2a4760c01b6113df565b6000610676676e15490d6bf351eb60c01b6113df565b61068a67046b727cd50ccca060c01b6113df565b60008060003373ffffffffffffffffffffffffffffffffffffffff1673ffffffffffffffffffffffffffffffffffffffff1681526020019081526020016000205490506106e16744866191b0f8212660c01b6113df565b3373ffffffffffffffffffffffffffffffffffffffff168160405161070590611930565b60006040518083038185875af1925050503d8060008114610742576040519150601f19603f3d011682016040523d82523d6000602084013e610747565b606091505b505080925050610761672ef11bf444e140f160c01b6113df565b610775678416a25171d39a3160c01b6113df565b61078967a839ec39080394e460c01b6113df565b816107c9576040517f08c379a00000000000000000000000000000000000000000000000000000000081526004016107c090611991565b60405180910390fd5b6107dd67f1011e47450efa3d60c01b6113df565b6107f1675235b0665694798c60c01b6113df565b60008060003373ffffffffffffffffffffffffffffffffffffffff1673ffffffffffffffffffffffffffffffffffffffff16815260200190815260200160002081905550610849674ac846d04b8a5acb60c01b6113df565b61085d672827cc1de83e6c1b60c01b6113df565b7f77c6a2d8d3942a382b334e2c03e61d126d3ca8fe1101b1f3e08d437d2294c75e338260405161088e9291906119b1565b60405180910390a15050565b600160009054906101000a900473ffffffffffffffffffffffffffffffffffffffff1681565b6108d467446c163924647e3660c01b6113df565b6108e867de17d2049558bc3760c01b6113df565b6108fc672f016dfa7e6b84f560c01b6113df565b61091067aea51c685824c45460c01b6113df565b61092467f4257f01fad9006660c01b6113df565b6003546002546109349190611787565b421015610976576040517f08c379a000000000000000000000000000000000000000000000000000000000815260040161096d90611807565b60405180910390fd5b61098a67bdc1a949455c474a60c01b6113df565b61099e6785d3dc2d71a4a8c060c01b6113df565b6109b267670ef7b47a1fb8b760c01b6113df565b6109c667647813953de6ca6360c01b6113df565b6109da672ad767c8a38d143e60c01b6113df565b6109ee67d05c710b3671734860c01b6113df565b610a02671c7bf30fbf475bb660c01b6113df565b610a1667a56a7ab3dcc3675460c01b6113df565b600160009054906101000a900473ffffffffffffffffffffffffffffffffffffffff1673ffffffffffffffffffffffffffffffffffffffff163373ffffffffffffffffffffffffffffffffffffffff1614610aa6576040517f08c379a0000000000000000000000000000000000000000000000000000000008152600401610a9d90611738565b60405180910390fd5b610aba675ef557679e0dfee760c01b6113df565b610ace6752de0caf6a3c7fe360c01b6113df565b610ae267754c69478b046b6960c01b6113df565b610af66772faafa1ce413f2f60c01b6113df565b610b0a677b592157ec1ebe0c60c01b6113df565b610b1e67cd4ba0af324aa06560c01b6113df565b610b326749cf449b52cdbb0860c01b6113df565b683635c9adc5dea00000610b45476113e2565b1015610b86576040517f08c379a0000000000000000000000000000000000000000000000000000000008152600401610b7d90611873565b60405180910390fd5b610b9a677015fff309808c1b60c01b6113df565b610bae67496e235ad586046960c01b6113df565b610bc2677adc94fc1d3b90d060c01b6113df565b6000610bd867da537c49756252fb60c01b6113df565b610bec673e7e72ab0c22a43860c01b6113df565b6000479050610c0567af7b0c3390b1ff1b60c01b6113df565b3373ffffffffffffffffffffffffffffffffffffffff1681604051610c2990611930565b60006040518083038185875af1925050503d8060008114610c66576040519150601f19603f3d011682016040523d82523d6000602084013e610c6b565b606091505b505080925050610c8567f3aa9de1a5fa7d1660c01b6113df565b610c99677cdc0a34c80c231560c01b6113df565b610cad674871e83078c6712160c01b6113df565b81610ced576040517f08c379a0000000000000000000000000000000000000000000000000000000008152600401610ce490611991565b60405180910390fd5b610d0167415fc40deabff6b460c01b6113df565b610d1567d58c2c051222d35e60c01b6113df565b60008060003373ffffffffffffffffffffffffffffffffffffffff1673ffffffffffffffffffffffffffffffffffffffff16815260200190815260200160002081905550610d6d67da9111aabd2d9ad860c01b6113df565b6001600460146101000a81548160ff021916908315150217905550610d9c676cc3a482058fd24260c01b6113df565b610db0676abb0c9b7a31859360c01b6113df565b7f79f21f274bcdba22f4de57856002ef2dcf5eed39503e61aeaf5f593b6ffa79b981604051610ddf91906115c4565b60405180910390a15050565b600560009054906101000a900473ffffffffffffffffffffffffffffffffffffffff1681565b60006020528060005260406000206000915090505481565b610e3d6779fef8e0f8273db360c01b6113df565b610e5167cb458f4c6feb136260c01b6113df565b610e65678c283582bc56ee0560c01b6113df565b610e7967a1a826c7273b0d4660c01b6113df565b68056bc75e2d63100000610e8c346113e2565b1015610ecd576040517f08c379a0000000000000000000000000000000000000000000000000000000008152600401610ec490611a26565b60405180910390fd5b610ee167df948372a1bb198060c01b6113df565b610ef56788ad9e841bd903cd60c01b6113df565b610f096796a4d256cd1c0f0260c01b6113df565b610f1d6708d37c9fdde0585660c01b6113df565b600354600254610f2d9190611787565b4210610f6e576040517f08c379a0000000000000000000000000000000000000000000000000000000008152600401610f6590611a92565b60405180910390fd5b610f826783fc8ffddfc1499c60c01b6113df565b610f9667bf453418eeac600560c01b6113df565b346000803373ffffffffffffffffffffffffffffffffffffffff1673ffffffffffffffffffffffffffffffffffffffff16815260200190815260200160002081905550565b6000610ff1674fee39e6f3e5f16860c01b6113df565b611005675aeea0530c437a1d60c01b6113df565b61101967ba81b9df3bfb723260c01b6113df565b6000600560009054906101000a900473ffffffffffffffffffffffffffffffffffffffff1673ffffffffffffffffffffffffffffffffffffffff1663feaf968c6040518163ffffffff1660e01b815260040160a060405180830381865afa158015611088573d6000803e3d6000fd5b505050506040513d601f19601f820116820180604052508101906110ac9190611b35565b5050509150506110c66791af0665c2b29aba60c01b6113df565b6110da67a65062678dc0e5f760c01b6113df565b8091505090565b6110f5675935161cc3e4e6ad60c01b6113df565b61110967a131a2884563de3860c01b6113df565b61111d6783438d7ca309be3d60c01b6113df565b61113167cb996d25827143b560c01b6113df565b600460009054906101000a900473ffffffffffffffffffffffffffffffffffffffff1673ffffffffffffffffffffffffffffffffffffffff163373ffffffffffffffffffffffffffffffffffffffff16146111c1576040517f08c379a00000000000000000000000000000000000000000000000000000000081526004016111b890611c22565b60405180910390fd5b6111d567aea03acf485a8a4e60c01b6113df565b6111e967a8f94e37f2a46d1060c01b6113df565b806000808473ffffffffffffffffffffffffffffffffffffffff1673ffffffffffffffffffffffffffffffffffffffff168152602001908152602001600020819055505050565b600460149054906101000a900460ff1681565b61125767fd326fa0b8643fcb60c01b6113df565b61126b672ad767c8a38d143e60c01b6113df565b61127f67d05c710b3671734860c01b6113df565b611293671c7bf30fbf475bb660c01b6113df565b6112a767a56a7ab3dcc3675460c01b6113df565b600160009054906101000a900473ffffffffffffffffffffffffffffffffffffffff1673ffffffffffffffffffffffffffffffffffffffff163373ffffffffffffffffffffffffffffffffffffffff1614611337576040517f08c379a000000000000000000000000000000000000000000000000000000000815260040161132e90611738565b60405180910390fd5b61134b675ef557679e0dfee760c01b6113df565b61135f6752de0caf6a3c7fe360c01b6113df565b611373677e094e0b8b0f1a4960c01b6113df565b61138767efa50bbbd9e0cfab60c01b6113df565b61139b674ac3096ab78ff7e760c01b6113df565b80600160006101000a81548173ffffffffffffffffffffffffffffffffffffffff021916908373ffffffffffffffffffffffffffffffffffffffff16021790555050565b50565b60006113f86733c132b2412aaf1e60c01b6113df565b61140c67a5327c35213c919860c01b6113df565b611420672608c5c54368e5c260c01b6113df565b600061142a610fdb565b905061144067e40c7beafa4d2a6f60c01b6113df565b61145467785be5bfb1aa306060c01b6113df565b6305f5e10081846114659190611c42565b61146f9190611cb3565b915050919050565b600080fd5b600073ffffffffffffffffffffffffffffffffffffffff82169050919050565b60006114a78261147c565b9050919050565b6114b78161149c565b81146114c257600080fd5b50565b6000813590506114d4816114ae565b92915050565b6000602082840312156114f0576114ef611477565b5b60006114fe848285016114c5565b91505092915050565b6115108161149c565b82525050565b600060208201905061152b6000830184611507565b92915050565b6000819050919050565b600061155661155161154c8461147c565b611531565b61147c565b9050919050565b60006115688261153b565b9050919050565b600061157a8261155d565b9050919050565b61158a8161156f565b82525050565b60006020820190506115a56000830184611581565b92915050565b6000819050919050565b6115be816115ab565b82525050565b60006020820190506115d960008301846115b5565b92915050565b6000819050919050565b6115f2816115df565b82525050565b600060208201905061160d60008301846115e9565b92915050565b61161c816115ab565b811461162757600080fd5b50565b60008135905061163981611613565b92915050565b6000806040838503121561165657611655611477565b5b6000611664858286016114c5565b92505060206116758582860161162a565b9150509250929050565b60008115159050919050565b6116948161167f565b82525050565b60006020820190506116af600083018461168b565b92915050565b600082825260208201905092915050565b7f746869732066756e6374696f6e2063616e206f6e6c792062652063616c6c656460008201527f206279206f776e65720000000000000000000000000000000000000000000000602082015250565b60006117226029836116b5565b915061172d826116c6565b604082019050919050565b6000602082019050818103600083015261175181611715565b9050919050565b7f4e487b7100000000000000000000000000000000000000000000000000000000600052601160045260246000fd5b6000611792826115ab565b915061179d836115ab565b92508282019050808211156117b5576117b4611758565b5b92915050565b7f77696e646f77206973206e6f7420636c6f736564000000000000000000000000600082015250565b60006117f16014836116b5565b91506117fc826117bb565b602082019050919050565b60006020820190508181036000830152611820816117e4565b9050919050565b7f546172676572206973206e6f7420726561636865640000000000000000000000600082015250565b600061185d6015836116b5565b915061186882611827565b602082019050919050565b6000602082019050818103600083015261188c81611850565b9050919050565b7f7468657265206973206e6f2066756e6420666f7220796f750000000000000000600082015250565b60006118c96018836116b5565b91506118d482611893565b602082019050919050565b600060208201905081810360008301526118f8816118bc565b9050919050565b600081905092915050565b50565b600061191a6000836118ff565b91506119258261190a565b600082019050919050565b600061193b8261190d565b9150819050919050565b7f7472616e73666572207478206661696c65640000000000000000000000000000600082015250565b600061197b6012836116b5565b915061198682611945565b602082019050919050565b600060208201905081810360008301526119aa8161196e565b9050919050565b60006040820190506119c66000830185611507565b6119d360208301846115b5565b9392505050565b7f73656e64206d6f72652065746800000000000000000000000000000000000000600082015250565b6000611a10600d836116b5565b9150611a1b826119da565b602082019050919050565b60006020820190508181036000830152611a3f81611a03565b9050919050565b7f77696e646f7720697320636c6f73656400000000000000000000000000000000600082015250565b6000611a7c6010836116b5565b9150611a8782611a46565b602082019050919050565b60006020820190508181036000830152611aab81611a6f565b9050919050565b600069ffffffffffffffffffff82169050919050565b611ad181611ab2565b8114611adc57600080fd5b50565b600081519050611aee81611ac8565b92915050565b611afd816115df565b8114611b0857600080fd5b50565b600081519050611b1a81611af4565b92915050565b600081519050611b2f81611613565b92915050565b600080600080600060a08688031215611b5157611b50611477565b5b6000611b5f88828901611adf565b9550506020611b7088828901611b0b565b9450506040611b8188828901611b20565b9350506060611b9288828901611b20565b9250506080611ba388828901611adf565b9150509295509295909350565b7f6f6e6c7920657263323020636f6e74726163742063616e2063616c6c2074686960008201527f732066756e6374696f6e00000000000000000000000000000000000000000000602082015250565b6000611c0c602a836116b5565b9150611c1782611bb0565b604082019050919050565b60006020820190508181036000830152611c3b81611bff565b9050919050565b6000611c4d826115ab565b9150611c58836115ab565b9250828202611c66816115ab565b91508282048414831517611c7d57611c7c611758565b5b5092915050565b7f4e487b7100000000000000000000000000000000000000000000000000000000600052601260045260246000fd5b6000611cbe826115ab565b9150611cc9836115ab565b925082611cd957611cd8611c84565b5b82820490509291505056fea264697066735822122095284394cc356a81c35655a265b1b16160765e5290e296ccfa90e425040d207864736f6c634300081c0033",
  "linkReferences": {},
  "deployedLinkReferences": {}
}