{
  "address": "0xe8D7361eF6b9B14b9f65DAc98Fa1ebbb27e71602",
  "abi": [
    {
      "inputs": [
        {
          "internalType": "uint256",
          "name": "_lockTime",
          "type": "uint256"
        },
        {
          "internalType": "address",
          "name": "dataFeedAddr",
          "type": "address"
        }
      ],
      "stateMutability": "nonpayable",
      "type": "constructor"
    },
    {
      "inputs": [],
      "name": "dataFeed",
      "outputs": [
        {
          "internalType": "contract AggregatorV3Interface",
          "name": "",
          "type": "address"
        }
      ],
      "stateMutability": "view",
      "type": "function"
    },
    {
      "inputs": [],
      "name": "fund",
      "outputs": [],
      "stateMutability": "payable",
      "type": "function"
    },
    {
      "inputs": [
        {
          "internalType": "address",
          "name": "",
          "type": "address"
        }
      ],
      "name": "fundersToAmount",
      "outputs": [
        {
          "internalType": "uint256",
          "name": "",
          "type": "uint256"
        }
      ],
      "stateMutability": "view",
      "type": "function"
    },
    {
      "inputs": [],
      "name": "getChainlinkDataFeedLatestAnswer",
      "outputs": [
        {
          "internalType": "int256",
          "name": "",
          "type": "int256"
        }
      ],
      "stateMutability": "view",
      "type": "function"
    },
    {
      "inputs": [],
      "name": "getFund",
      "outputs": [],
      "stateMutability": "payable",
      "type": "function"
    },
    {
      "inputs": [],
      "name": "getFundSuccess",
      "outputs": [
        {
          "internalType": "bool",
          "name": "",
          "type": "bool"
        }
      ],
      "stateMutability": "view",
      "type": "function"
    },
    {
      "inputs": [],
      "name": "owner",
      "outputs": [
        {
          "internalType": "address",
          "name": "",
          "type": "address"
        }
      ],
      "stateMutability": "view",
      "type": "function"
    },
    {
      "inputs": [],
      "name": "refund",
      "outputs": [],
      "stateMutability": "payable",
      "type": "function"
    },
    {
      "inputs": [
        {
          "internalType": "address",
          "name": "_erc20Addr",
          "type": "address"
        }
      ],
      "name": "setErc20Addr",
      "outputs": [],
      "stateMutability": "nonpayable",
      "type": "function"
    },
    {
      "inputs": [
        {
          "internalType": "address",
          "name": "funder",
          "type": "address"
        },
        {
          "internalType": "uint256",
          "name": "amountToUpdate",
          "type": "uint256"
        }
      ],
      "name": "setFunderToAmount",
      "outputs": [],
      "stateMutability": "nonpayable",
      "type": "function"
    },
    {
      "inputs": [
        {
          "internalType": "address",
          "name": "newOwner",
          "type": "address"
        }
      ],
      "name": "transferOwnership",
      "outputs": [],
      "stateMutability": "nonpayable",
      "type": "function"
    }
  ],
  "transactionHash": "0x48bb23e60b8d5a71cd970a5dc17335da69798fb4a3bab5068d171466cad45ec5",
  "args": [
    180,
    "0x694AA1769357215DE4FAC081bf1f309aDC325306"
  ],
  "numDeployments": 1,
  "solcInputHash": "ea39252004742b410989e2769927042f",
  "bytecode": "0x60806040526000600460146101000a81548160ff02191690831515021790555034801561002b57600080fd5b506040516115b93803806115b9833981810160405281019061004d919061017d565b80600560006101000a81548173ffffffffffffffffffffffffffffffffffffffff021916908373ffffffffffffffffffffffffffffffffffffffff16021790555033600160006101000a81548173ffffffffffffffffffffffffffffffffffffffff021916908373ffffffffffffffffffffffffffffffffffffffff160217905550426002819055508160038190555050506101bd565b600080fd5b6000819050919050565b6100fc816100e9565b811461010757600080fd5b50565b600081519050610119816100f3565b92915050565b600073ffffffffffffffffffffffffffffffffffffffff82169050919050565b600061014a8261011f565b9050919050565b61015a8161013f565b811461016557600080fd5b50565b60008151905061017781610151565b92915050565b60008060408385031215610194576101936100e4565b5b60006101a28582860161010a565b92505060206101b385828601610168565b9150509250929050565b6113ed806101cc6000396000f3fe60806040526004361061009c5760003560e01c80639f883a05116100645780639f883a0514610134578063b60d428814610171578063bea4dfb51461017b578063d39cf006146101a6578063da4658e0146101cf578063f2fde38b146101fa5761009c565b806313ffff01146100a1578063590e1ae3146100ca5780638da5cb5b146100d45780638edd6eb6146100ff5780639e42ff9014610109575b600080fd5b3480156100ad57600080fd5b506100c860048036038101906100c39190610bd6565b610223565b005b6100d26102f7565b005b3480156100e057600080fd5b506100e9610550565b6040516100f69190610c12565b60405180910390f35b610107610576565b005b34801561011557600080fd5b5061011e6107bc565b60405161012b9190610c8c565b60405180910390f35b34801561014057600080fd5b5061015b60048036038101906101569190610bd6565b6107e2565b6040516101689190610cc0565b60405180910390f35b6101796107fa565b005b34801561018757600080fd5b506101906108e4565b60405161019d9190610cf4565b60405180910390f35b3480156101b257600080fd5b506101cd60048036038101906101c89190610d3b565b610985565b005b3480156101db57600080fd5b506101e4610a5c565b6040516101f19190610d96565b60405180910390f35b34801561020657600080fd5b50610221600480360381019061021c9190610bd6565b610a6f565b005b600160009054906101000a900473ffffffffffffffffffffffffffffffffffffffff1673ffffffffffffffffffffffffffffffffffffffff163373ffffffffffffffffffffffffffffffffffffffff16146102b3576040517f08c379a00000000000000000000000000000000000000000000000000000000081526004016102aa90610e34565b60405180910390fd5b80600460006101000a81548173ffffffffffffffffffffffffffffffffffffffff021916908373ffffffffffffffffffffffffffffffffffffffff16021790555050565b6003546002546103079190610e83565b421015610349576040517f08c379a000000000000000000000000000000000000000000000000000000000815260040161034090610f03565b60405180910390fd5b683635c9adc5dea0000061035c47610b43565b1061039c576040517f08c379a000000000000000000000000000000000000000000000000000000000815260040161039390610f6f565b60405180910390fd5b60008060003373ffffffffffffffffffffffffffffffffffffffff1673ffffffffffffffffffffffffffffffffffffffff168152602001908152602001600020541161041d576040517f08c379a000000000000000000000000000000000000000000000000000000000815260040161041490610fdb565b60405180910390fd5b60003373ffffffffffffffffffffffffffffffffffffffff166000803373ffffffffffffffffffffffffffffffffffffffff1673ffffffffffffffffffffffffffffffffffffffff168152602001908152602001600020546040516104819061102c565b60006040518083038185875af1925050503d80600081146104be576040519150601f19603f3d011682016040523d82523d6000602084013e6104c3565b606091505b50508091505080610509576040517f08c379a00000000000000000000000000000000000000000000000000000000081526004016105009061108d565b60405180910390fd5b60008060003373ffffffffffffffffffffffffffffffffffffffff1673ffffffffffffffffffffffffffffffffffffffff1681526020019081526020016000208190555050565b600160009054906101000a900473ffffffffffffffffffffffffffffffffffffffff1681565b6003546002546105869190610e83565b4210156105c8576040517f08c379a00000000000000000000000000000000000000000000000000000000081526004016105bf90610f03565b60405180910390fd5b600160009054906101000a900473ffffffffffffffffffffffffffffffffffffffff1673ffffffffffffffffffffffffffffffffffffffff163373ffffffffffffffffffffffffffffffffffffffff1614610658576040517f08c379a000000000000000000000000000000000000000000000000000000000815260040161064f90610e34565b60405180910390fd5b683635c9adc5dea0000061066b47610b43565b10156106ac576040517f08c379a00000000000000000000000000000000000000000000000000000000081526004016106a390610f6f565b60405180910390fd5b60003373ffffffffffffffffffffffffffffffffffffffff16476040516106d29061102c565b60006040518083038185875af1925050503d806000811461070f576040519150601f19603f3d011682016040523d82523d6000602084013e610714565b606091505b5050809150508061075a576040517f08c379a00000000000000000000000000000000000000000000000000000000081526004016107519061108d565b60405180910390fd5b60008060003373ffffffffffffffffffffffffffffffffffffffff1673ffffffffffffffffffffffffffffffffffffffff168152602001908152602001600020819055506001600460146101000a81548160ff02191690831515021790555050565b600560009054906101000a900473ffffffffffffffffffffffffffffffffffffffff1681565b60006020528060005260406000206000915090505481565b68056bc75e2d6310000061080d34610b43565b101561084e576040517f08c379a0000000000000000000000000000000000000000000000000000000008152600401610845906110f9565b60405180910390fd5b60035460025461085e9190610e83565b421061089f576040517f08c379a000000000000000000000000000000000000000000000000000000000815260040161089690611165565b60405180910390fd5b346000803373ffffffffffffffffffffffffffffffffffffffff1673ffffffffffffffffffffffffffffffffffffffff16815260200190815260200160002081905550565b600080600560009054906101000a900473ffffffffffffffffffffffffffffffffffffffff1673ffffffffffffffffffffffffffffffffffffffff1663feaf968c6040518163ffffffff1660e01b815260040160a060405180830381865afa158015610954573d6000803e3d6000fd5b505050506040513d601f19601f820116820180604052508101906109789190611208565b5050509150508091505090565b600460009054906101000a900473ffffffffffffffffffffffffffffffffffffffff1673ffffffffffffffffffffffffffffffffffffffff163373ffffffffffffffffffffffffffffffffffffffff1614610a15576040517f08c379a0000000000000000000000000000000000000000000000000000000008152600401610a0c906112f5565b60405180910390fd5b806000808473ffffffffffffffffffffffffffffffffffffffff1673ffffffffffffffffffffffffffffffffffffffff168152602001908152602001600020819055505050565b600460149054906101000a900460ff1681565b600160009054906101000a900473ffffffffffffffffffffffffffffffffffffffff1673ffffffffffffffffffffffffffffffffffffffff163373ffffffffffffffffffffffffffffffffffffffff1614610aff576040517f08c379a0000000000000000000000000000000000000000000000000000000008152600401610af690610e34565b60405180910390fd5b80600160006101000a81548173ffffffffffffffffffffffffffffffffffffffff021916908373ffffffffffffffffffffffffffffffffffffffff16021790555050565b600080610b4e6108e4565b90506305f5e1008184610b619190611315565b610b6b9190611386565b915050919050565b600080fd5b600073ffffffffffffffffffffffffffffffffffffffff82169050919050565b6000610ba382610b78565b9050919050565b610bb381610b98565b8114610bbe57600080fd5b50565b600081359050610bd081610baa565b92915050565b600060208284031215610bec57610beb610b73565b5b6000610bfa84828501610bc1565b91505092915050565b610c0c81610b98565b82525050565b6000602082019050610c276000830184610c03565b92915050565b6000819050919050565b6000610c52610c4d610c4884610b78565b610c2d565b610b78565b9050919050565b6000610c6482610c37565b9050919050565b6000610c7682610c59565b9050919050565b610c8681610c6b565b82525050565b6000602082019050610ca16000830184610c7d565b92915050565b6000819050919050565b610cba81610ca7565b82525050565b6000602082019050610cd56000830184610cb1565b92915050565b6000819050919050565b610cee81610cdb565b82525050565b6000602082019050610d096000830184610ce5565b92915050565b610d1881610ca7565b8114610d2357600080fd5b50565b600081359050610d3581610d0f565b92915050565b60008060408385031215610d5257610d51610b73565b5b6000610d6085828601610bc1565b9250506020610d7185828601610d26565b9150509250929050565b60008115159050919050565b610d9081610d7b565b82525050565b6000602082019050610dab6000830184610d87565b92915050565b600082825260208201905092915050565b7f746869732066756e6374696f6e2063616e206f6e6c792062652063616c6c656460008201527f206279206f776e65720000000000000000000000000000000000000000000000602082015250565b6000610e1e602983610db1565b9150610e2982610dc2565b604082019050919050565b60006020820190508181036000830152610e4d81610e11565b9050919050565b7f4e487b7100000000000000000000000000000000000000000000000000000000600052601160045260246000fd5b6000610e8e82610ca7565b9150610e9983610ca7565b9250828201905080821115610eb157610eb0610e54565b5b92915050565b7f77696e646f77206973206e6f7420636c6f736564000000000000000000000000600082015250565b6000610eed601483610db1565b9150610ef882610eb7565b602082019050919050565b60006020820190508181036000830152610f1c81610ee0565b9050919050565b7f546172676572206973206e6f7420726561636865640000000000000000000000600082015250565b6000610f59601583610db1565b9150610f6482610f23565b602082019050919050565b60006020820190508181036000830152610f8881610f4c565b9050919050565b7f7468657273206973206e6f2066756e6420666f7220796f750000000000000000600082015250565b6000610fc5601883610db1565b9150610fd082610f8f565b602082019050919050565b60006020820190508181036000830152610ff481610fb8565b9050919050565b600081905092915050565b50565b6000611016600083610ffb565b915061102182611006565b600082019050919050565b600061103782611009565b9150819050919050565b7f7472616e73666572207478206661696c65640000000000000000000000000000600082015250565b6000611077601283610db1565b915061108282611041565b602082019050919050565b600060208201905081810360008301526110a68161106a565b9050919050565b7f73656e64206d6f72652065746800000000000000000000000000000000000000600082015250565b60006110e3600d83610db1565b91506110ee826110ad565b602082019050919050565b60006020820190508181036000830152611112816110d6565b9050919050565b7f77696e646f7720697320636c6f73656400000000000000000000000000000000600082015250565b600061114f601083610db1565b915061115a82611119565b602082019050919050565b6000602082019050818103600083015261117e81611142565b9050919050565b600069ffffffffffffffffffff82169050919050565b6111a481611185565b81146111af57600080fd5b50565b6000815190506111c18161119b565b92915050565b6111d081610cdb565b81146111db57600080fd5b50565b6000815190506111ed816111c7565b92915050565b60008151905061120281610d0f565b92915050565b600080600080600060a0868803121561122457611223610b73565b5b6000611232888289016111b2565b9550506020611243888289016111de565b9450506040611254888289016111f3565b9350506060611265888289016111f3565b9250506080611276888289016111b2565b9150509295509295909350565b7f6f6e6c7920657263323020636f6e74726163742063616e2063616c6c2074686960008201527f732066756e6374696f6e00000000000000000000000000000000000000000000602082015250565b60006112df602a83610db1565b91506112ea82611283565b604082019050919050565b6000602082019050818103600083015261130e816112d2565b9050919050565b600061132082610ca7565b915061132b83610ca7565b925082820261133981610ca7565b915082820484148315176113505761134f610e54565b5b5092915050565b7f4e487b7100000000000000000000000000000000000000000000000000000000600052601260045260246000fd5b600061139182610ca7565b915061139c83610ca7565b9250826113ac576113ab611357565b5b82820490509291505056fea2646970667358221220a49a589b00cf3028c839c3ff83aed741084af289dfcd3a7e7f07d8c1ce3d307364736f6c634300081c0033",
  "devdoc": {
    "kind": "dev",
    "methods": {},
    "version": 1
  },
  "userdoc": {
    "kind": "user",
    "methods": {},
    "version": 1
  },
  "storageLayout": {
    "storage": [
      {
        "astId": 67,
        "contract": "contracts/FundMe.sol:FundMe",
        "label": "fundersToAmount",
        "offset": 0,
        "slot": "0",
        "type": "t_mapping(t_address,t_uint256)"
      },
      {
        "astId": 69,
        "contract": "contracts/FundMe.sol:FundMe",
        "label": "owner",
        "offset": 0,
        "slot": "1",
        "type": "t_address"
      },
      {
        "astId": 71,
        "contract": "contracts/FundMe.sol:FundMe",
        "label": "deployTimeStamp",
        "offset": 0,
        "slot": "2",
        "type": "t_uint256"
      },
      {
        "astId": 73,
        "contract": "contracts/FundMe.sol:FundMe",
        "label": "lockTime",
        "offset": 0,
        "slot": "3",
        "type": "t_uint256"
      },
      {
        "astId": 75,
        "contract": "contracts/FundMe.sol:FundMe",
        "label": "erc20Addr",
        "offset": 0,
        "slot": "4",
        "type": "t_address"
      },
      {
        "astId": 78,
        "contract": "contracts/FundMe.sol:FundMe",
        "label": "getFundSuccess",
        "offset": 20,
        "slot": "4",
        "type": "t_bool"
      },
      {
        "astId": 81,
        "contract": "contracts/FundMe.sol:FundMe",
        "label": "dataFeed",
        "offset": 0,
        "slot": "5",
        "type": "t_contract(AggregatorV3Interface)45"
      }
    ],
    "types": {
      "t_address": {
        "encoding": "inplace",
        "label": "address",
        "numberOfBytes": "20"
      },
      "t_bool": {
        "encoding": "inplace",
        "label": "bool",
        "numberOfBytes": "1"
      },
      "t_contract(AggregatorV3Interface)45": {
        "encoding": "inplace",
        "label": "contract AggregatorV3Interface",
        "numberOfBytes": "20"
      },
      "t_mapping(t_address,t_uint256)": {
        "encoding": "mapping",
        "key": "t_address",
        "label": "mapping(address => uint256)",
        "numberOfBytes": "32",
        "value": "t_uint256"
      },
      "t_uint256": {
        "encoding": "inplace",
        "label": "uint256",
        "numberOfBytes": "32"
      }
    }
  }
}