{
  "_format": "hh-sol-artifact-1",
  "contractName": "Lock",
  "sourceName": "contracts/Lock.sol",
  "abi": [
    {
      "inputs": [
        {
          "internalType": "uint256",
          "name": "_unlockTime",
          "type": "uint256"
        }
      ],
      "stateMutability": "payable",
      "type": "constructor"
    },
    {
      "anonymous": false,
      "inputs": [
        {
          "indexed": false,
          "internalType": "uint256",
          "name": "amount",
          "type": "uint256"
        },
        {
          "indexed": false,
          "internalType": "uint256",
          "name": "when",
          "type": "uint256"
        }
      ],
      "name": "Withdrawal",
      "type": "event"
    },
    {
      "inputs": [],
      "name": "owner",
      "outputs": [
        {
          "internalType": "address payable",
          "name": "",
          "type": "address"
        }
      ],
      "stateMutability": "view",
      "type": "function"
    },
    {
      "inputs": [],
      "name": "unlockTime",
      "outputs": [
        {
          "internalType": "uint256",
          "name": "",
          "type": "uint256"
        }
      ],
      "stateMutability": "view",
      "type": "function"
    },
    {
      "inputs": [],
      "name": "withdraw",
      "outputs": [],
      "stateMutability": "nonpayable",
      "type": "function"
    }
  ],
  "bytecode": "0x6080604052604051610798380380610798833981810160405281019061002591906101a9565b61003f67edc353dca1233d4760c01b61016b60201b60201c565b61005967ab6cdc263aed864e60c01b61016b60201b60201c565b610073674e7b624e6403478760c01b61016b60201b60201c565b61008d670c5401ec8ed832dd60c01b61016b60201b60201c565b8042106100cf576040517f08c379a00000000000000000000000000000000000000000000000000000000081526004016100c690610259565b60405180910390fd5b6100e96744a6e4dbc58a29db60c01b61016b60201b60201c565b61010367f1042bc54504708a60c01b61016b60201b60201c565b806000819055506101246706d7ddb2419624f760c01b61016b60201b60201c565b33600160006101000a81548173ffffffffffffffffffffffffffffffffffffffff021916908373ffffffffffffffffffffffffffffffffffffffff16021790555050610279565b50565b600080fd5b6000819050919050565b61018681610173565b811461019157600080fd5b50565b6000815190506101a38161017d565b92915050565b6000602082840312156101bf576101be61016e565b5b60006101cd84828501610194565b91505092915050565b600082825260208201905092915050565b7f556e6c6f636b2074696d652073686f756c6420626520696e207468652066757460008201527f7572650000000000000000000000000000000000000000000000000000000000602082015250565b60006102436023836101d6565b915061024e826101e7565b604082019050919050565b6000602082019050818103600083015261027281610236565b9050919050565b610510806102886000396000f3fe608060405234801561001057600080fd5b50600436106100415760003560e01c8063251c1aa3146100465780633ccfd60b146100645780638da5cb5b1461006e575b600080fd5b61004e61008c565b60405161005b9190610351565b60405180910390f35b61006c610092565b005b61007661030f565b60405161008391906103ad565b60405180910390f35b60005481565b6100a667b9c73479cecb370560c01b610335565b6100ba67849abf35314dc8f360c01b610335565b6100ce67464c59e2322466d460c01b610335565b6100e26732b7bf56dc3fc28a60c01b610335565b600054421015610127576040517f08c379a000000000000000000000000000000000000000000000000000000000815260040161011e90610425565b60405180910390fd5b61013b67d503c149d3c0a93760c01b610335565b61014f6705cd9b6466e6447960c01b610335565b61016367998a19d77b0fdb9860c01b610335565b61017767db631f8f1dcbb8ba60c01b610335565b600160009054906101000a900473ffffffffffffffffffffffffffffffffffffffff1673ffffffffffffffffffffffffffffffffffffffff163373ffffffffffffffffffffffffffffffffffffffff1614610207576040517f08c379a00000000000000000000000000000000000000000000000000000000081526004016101fe90610491565b60405180910390fd5b61021b67c2c86ad55033652960c01b610335565b61022f6774510435dde83ab660c01b610335565b61024367fc09918e354265fb60c01b610335565b7fbf2ed60bd5b5965d685680c01195c9514e4382e28e3a5a2d2d5244bf59411b9347426040516102749291906104b1565b60405180910390a161029067da767eb35782c7ba60c01b610335565b6102a46743781c441aef5a8260c01b610335565b600160009054906101000a900473ffffffffffffffffffffffffffffffffffffffff1673ffffffffffffffffffffffffffffffffffffffff166108fc479081150290604051600060405180830381858888f1935050505015801561030c573d6000803e3d6000fd5b50565b600160009054906101000a900473ffffffffffffffffffffffffffffffffffffffff1681565b50565b6000819050919050565b61034b81610338565b82525050565b60006020820190506103666000830184610342565b92915050565b600073ffffffffffffffffffffffffffffffffffffffff82169050919050565b60006103978261036c565b9050919050565b6103a78161038c565b82525050565b60006020820190506103c2600083018461039e565b92915050565b600082825260208201905092915050565b7f596f752063616e27742077697468647261772079657400000000000000000000600082015250565b600061040f6016836103c8565b915061041a826103d9565b602082019050919050565b6000602082019050818103600083015261043e81610402565b9050919050565b7f596f75206172656e277420746865206f776e6572000000000000000000000000600082015250565b600061047b6014836103c8565b915061048682610445565b602082019050919050565b600060208201905081810360008301526104aa8161046e565b9050919050565b60006040820190506104c66000830185610342565b6104d36020830184610342565b939250505056fea2646970667358221220fbaaf34a156652d4e349b17efc7009edd602424f0d38a9ba743cd3fb659951dd64736f6c634300081c0033",
  "linkReferences": {},
  "deployedLinkReferences": {}
}